{
  "_format": "hh-sol-artifact-1",
  "contractName": "BrainRegistryV2",
  "sourceName": "contracts/BrainRegistryV2.sol",
  "abi": [
    {
      "inputs": [],
      "stateMutability": "nonpayable",
      "type": "constructor"
    },
    {
      "inputs": [],
      "name": "InvalidAddress",
      "type": "error"
    },
    {
      "inputs": [],
      "name": "InvalidScoreValue",
      "type": "error"
    },
    {
      "inputs": [],
      "name": "InvalidXPValue",
      "type": "error"
    },
    {
      "inputs": [],
      "name": "NotAuthorized",
      "type": "error"
    },
    {
      "inputs": [
        {
          "internalType": "address",
          "name": "owner",
          "type": "address"
        }
      ],
      "name": "OwnableInvalidOwner",
      "type": "error"
    },
    {
      "inputs": [
        {
          "internalType": "address",
          "name": "account",
          "type": "address"
        }
      ],
      "name": "OwnableUnauthorizedAccount",
      "type": "error"
    },
    {
      "inputs": [],
      "name": "ProfileAlreadyExists",
      "type": "error"
    },
    {
      "inputs": [],
      "name": "ProfileDoesNotExist",
      "type": "error"
    },
    {
      "inputs": [],
      "name": "ReentrancyGuardReentrantCall",
      "type": "error"
    },
    {
      "inputs": [],
      "name": "RegistryNotLinked",
      "type": "error"
    },
    {
      "inputs": [],
      "name": "UsernameEmpty",
      "type": "error"
    },
    {
      "anonymous": false,
      "inputs": [
        {
          "indexed": true,
          "internalType": "address",
          "name": "contractAddress",
          "type": "address"
        },
        {
          "indexed": false,
          "internalType": "bool",
          "name": "status",
          "type": "bool"
        }
      ],
      "name": "AuthorizationUpdated",
      "type": "event"
    },
    {
      "anonymous": false,
      "inputs": [
        {
          "indexed": true,
          "internalType": "address",
          "name": "user",
          "type": "address"
        },
        {
          "indexed": false,
          "internalType": "uint256",
          "name": "oldScore",
          "type": "uint256"
        },
        {
          "indexed": false,
          "internalType": "uint256",
          "name": "newScore",
          "type": "uint256"
        }
      ],
      "name": "BrainScoreUpdated",
      "type": "event"
    },
    {
      "anonymous": false,
      "inputs": [
        {
          "indexed": false,
          "internalType": "address",
          "name": "passAddress",
          "type": "address"
        },
        {
          "indexed": false,
          "internalType": "address",
          "name": "badgeAddress",
          "type": "address"
        }
      ],
      "name": "LinkContractsUpdated",
      "type": "event"
    },
    {
      "anonymous": false,
      "inputs": [
        {
          "indexed": true,
          "internalType": "address",
          "name": "user",
          "type": "address"
        },
        {
          "indexed": false,
          "internalType": "uint256",
          "name": "badgeId",
          "type": "uint256"
        }
      ],
      "name": "MilestoneBadgeTriggered",
      "type": "event"
    },
    {
      "anonymous": false,
      "inputs": [
        {
          "indexed": true,
          "internalType": "address",
          "name": "previousOwner",
          "type": "address"
        },
        {
          "indexed": true,
          "internalType": "address",
          "name": "newOwner",
          "type": "address"
        }
      ],
      "name": "OwnershipTransferStarted",
      "type": "event"
    },
    {
      "anonymous": false,
      "inputs": [
        {
          "indexed": true,
          "internalType": "address",
          "name": "previousOwner",
          "type": "address"
        },
        {
          "indexed": true,
          "internalType": "address",
          "name": "newOwner",
          "type": "address"
        }
      ],
      "name": "OwnershipTransferred",
      "type": "event"
    },
    {
      "anonymous": false,
      "inputs": [
        {
          "indexed": true,
          "internalType": "address",
          "name": "user",
          "type": "address"
        },
        {
          "indexed": false,
          "internalType": "string",
          "name": "username",
          "type": "string"
        },
        {
          "indexed": false,
          "internalType": "uint256",
          "name": "timestamp",
          "type": "uint256"
        },
        {
          "indexed": false,
          "internalType": "uint256",
          "name": "passId",
          "type": "uint256"
        }
      ],
      "name": "ProfileCreated",
      "type": "event"
    },
    {
      "anonymous": false,
      "inputs": [
        {
          "indexed": true,
          "internalType": "address",
          "name": "user",
          "type": "address"
        },
        {
          "indexed": false,
          "internalType": "string",
          "name": "username",
          "type": "string"
        },
        {
          "indexed": false,
          "internalType": "string",
          "name": "metadataURI",
          "type": "string"
        }
      ],
      "name": "ProfileUpdated",
      "type": "event"
    },
    {
      "anonymous": false,
      "inputs": [
        {
          "indexed": true,
          "internalType": "address",
          "name": "user",
          "type": "address"
        },
        {
          "indexed": false,
          "internalType": "uint256",
          "name": "amount",
          "type": "uint256"
        },
        {
          "indexed": false,
          "internalType": "uint256",
          "name": "newXP",
          "type": "uint256"
        },
        {
          "indexed": false,
          "internalType": "uint256",
          "name": "newLevel",
          "type": "uint256"
        }
      ],
      "name": "XPAdded",
      "type": "event"
    },
    {
      "inputs": [],
      "name": "acceptOwnership",
      "outputs": [],
      "stateMutability": "nonpayable",
      "type": "function"
    },
    {
      "inputs": [
        {
          "internalType": "address",
          "name": "_user",
          "type": "address"
        },
        {
          "internalType": "uint256",
          "name": "_amount",
          "type": "uint256"
        }
      ],
      "name": "addXP",
      "outputs": [],
      "stateMutability": "nonpayable",
      "type": "function"
    },
    {
      "inputs": [
        {
          "internalType": "address",
          "name": "",
          "type": "address"
        }
      ],
      "name": "authorizedContracts",
      "outputs": [
        {
          "internalType": "bool",
          "name": "",
          "type": "bool"
        }
      ],
      "stateMutability": "view",
      "type": "function"
    },
    {
      "inputs": [],
      "name": "brainPassNFTAddress",
      "outputs": [
        {
          "internalType": "address",
          "name": "",
          "type": "address"
        }
      ],
      "stateMutability": "view",
      "type": "function"
    },
    {
      "inputs": [
        {
          "internalType": "string",
          "name": "_username",
          "type": "string"
        },
        {
          "internalType": "string",
          "name": "_metadataURI",
          "type": "string"
        }
      ],
      "name": "createProfile",
      "outputs": [
        {
          "internalType": "uint256",
          "name": "",
          "type": "uint256"
        }
      ],
      "stateMutability": "nonpayable",
      "type": "function"
    },
    {
      "inputs": [],
      "name": "getBuilderCount",
      "outputs": [
        {
          "internalType": "uint256",
          "name": "",
          "type": "uint256"
        }
      ],
      "stateMutability": "view",
      "type": "function"
    },
    {
      "inputs": [
        {
          "internalType": "address",
          "name": "_user",
          "type": "address"
        }
      ],
      "name": "getProfile",
      "outputs": [
        {
          "components": [
            {
              "internalType": "string",
              "name": "username",
              "type": "string"
            },
            {
              "internalType": "address",
              "name": "walletAddress",
              "type": "address"
            },
            {
              "internalType": "uint256",
              "name": "joinTimestamp",
              "type": "uint256"
            },
            {
              "internalType": "uint256",
              "name": "xp",
              "type": "uint256"
            },
            {
              "internalType": "uint256",
              "name": "level",
              "type": "uint256"
            },
            {
              "internalType": "uint256",
              "name": "brainScore",
              "type": "uint256"
            },
            {
              "internalType": "string",
              "name": "metadataURI",
              "type": "string"
            },
            {
              "internalType": "bool",
              "name": "exists",
              "type": "bool"
            }
          ],
          "internalType": "struct BrainRegistryV2.Profile",
          "name": "",
          "type": "tuple"
        }
      ],
      "stateMutability": "view",
      "type": "function"
    },
    {
      "inputs": [],
      "name": "getRegisteredBuilders",
      "outputs": [
        {
          "internalType": "address[]",
          "name": "",
          "type": "address[]"
        }
      ],
      "stateMutability": "view",
      "type": "function"
    },
    {
      "inputs": [
        {
          "internalType": "address",
          "name": "",
          "type": "address"
        },
        {
          "internalType": "uint256",
          "name": "",
          "type": "uint256"
        }
      ],
      "name": "hasMilestoneBadge",
      "outputs": [
        {
          "internalType": "bool",
          "name": "",
          "type": "bool"
        }
      ],
      "stateMutability": "view",
      "type": "function"
    },
    {
      "inputs": [
        {
          "internalType": "address",
          "name": "_pass",
          "type": "address"
        },
        {
          "internalType": "address",
          "name": "_badge",
          "type": "address"
        }
      ],
      "name": "linkContracts",
      "outputs": [],
      "stateMutability": "nonpayable",
      "type": "function"
    },
    {
      "inputs": [],
      "name": "owner",
      "outputs": [
        {
          "internalType": "address",
          "name": "",
          "type": "address"
        }
      ],
      "stateMutability": "view",
      "type": "function"
    },
    {
      "inputs": [],
      "name": "pendingOwner",
      "outputs": [
        {
          "internalType": "address",
          "name": "",
          "type": "address"
        }
      ],
      "stateMutability": "view",
      "type": "function"
    },
    {
      "inputs": [
        {
          "internalType": "uint256",
          "name": "",
          "type": "uint256"
        }
      ],
      "name": "registeredBuilders",
      "outputs": [
        {
          "internalType": "address",
          "name": "",
          "type": "address"
        }
      ],
      "stateMutability": "view",
      "type": "function"
    },
    {
      "inputs": [],
      "name": "renounceOwnership",
      "outputs": [],
      "stateMutability": "nonpayable",
      "type": "function"
    },
    {
      "inputs": [
        {
          "internalType": "address",
          "name": "_contract",
          "type": "address"
        },
        {
          "internalType": "bool",
          "name": "_status",
          "type": "bool"
        }
      ],
      "name": "setAuthorizedContract",
      "outputs": [],
      "stateMutability": "nonpayable",
      "type": "function"
    },
    {
      "inputs": [
        {
          "internalType": "address",
          "name": "newOwner",
          "type": "address"
        }
      ],
      "name": "transferOwnership",
      "outputs": [],
      "stateMutability": "nonpayable",
      "type": "function"
    },
    {
      "inputs": [
        {
          "internalType": "address",
          "name": "_user",
          "type": "address"
        },
        {
          "internalType": "uint256",
          "name": "_score",
          "type": "uint256"
        }
      ],
      "name": "updateBrainScore",
      "outputs": [],
      "stateMutability": "nonpayable",
      "type": "function"
    },
    {
      "inputs": [
        {
          "internalType": "string",
          "name": "_username",
          "type": "string"
        },
        {
          "internalType": "string",
          "name": "_metadataURI",
          "type": "string"
        }
      ],
      "name": "updateProfile",
      "outputs": [],
      "stateMutability": "nonpayable",
      "type": "function"
    },
    {
      "inputs": [],
      "name": "xpBadgeAddress",
      "outputs": [
        {
          "internalType": "address",
          "name": "",
          "type": "address"
        }
      ],
      "stateMutability": "view",
      "type": "function"
    }
  ],
  "bytecode": "0x608060405234801561000f575f80fd5b50338061003557604051631e4fbdf760e01b81525f600482015260240160405180910390fd5b61003e81610068565b5060017f9b779b17422d0df92223018b32b4d1fa46e071723d6817e2486d003becc55f00556100d3565b600180546001600160a01b031916905561008181610084565b50565b5f80546001600160a01b038381166001600160a01b0319831681178455604051919092169283917f8be0079c531659141344cd1fd0a4f28419497f9722a3daafe3b4186f6b6457e09190a35050565b6118d9806100e05f395ff3fe608060405234801561000f575f80fd5b506004361061011c575f3560e01c80638da5cb5b116100a9578063d5b9221b1161006e578063d5b9221b1461027b578063e30c39781461029d578063e54a01f9146102ae578063f2fa7392146102b6578063f2fde38b146102c9575f80fd5b80638da5cb5b14610211578063a40ade0a14610221578063ba1feb8a14610234578063c9d3cc6a14610255578063d36b772a14610268575f80fd5b80633dc9abfa116100ef5780633dc9abfa146101b0578063401b9f49146101c3578063715018a6146101ee57806379ba5097146101f657806379ea541f146101fe575f80fd5b80630f53a47014610120578063307b191b14610149578063316f8b041461015e5780633c3c53ed14610173575b5f80fd5b61013361012e3660046112d5565b6102dc565b6040516101409190611338565b60405180910390f35b6101516104fc565b60405161014091906113cc565b61017161016c366004611418565b61055c565b005b6101a0610181366004611418565b600660209081525f928352604080842090915290825290205460ff1681565b6040519015158152602001610140565b6101716101be366004611440565b610679565b6002546101d6906001600160a01b031681565b6040516001600160a01b039091168152602001610140565b61017161072a565b61017161073d565b6101d661020c366004611471565b610786565b5f546001600160a01b03166101d6565b61017161022f366004611418565b6107ae565b6102476102423660046114cd565b61093f565b604051908152602001610140565b6101716102633660046114cd565b610d01565b6003546101d6906001600160a01b031681565b6101a06102893660046112d5565b60056020525f908152604090205460ff1681565b6001546001600160a01b03166101d6565b600754610247565b6101716102c4366004611534565b610dce565b6101716102d73660046112d5565b610e5b565b610329604051806101000160405280606081526020015f6001600160a01b031681526020015f81526020015f81526020015f81526020015f8152602001606081526020015f151581525090565b6001600160a01b0382165f9081526004602052604090206007015460ff1661036457604051635a05a1b160e01b815260040160405180910390fd5b6001600160a01b0382165f9081526004602052604090819020815161010081019092528054829082906103969061156d565b80601f01602080910402602001604051908101604052809291908181526020018280546103c29061156d565b801561040d5780601f106103e45761010080835404028352916020019161040d565b820191905f5260205f20905b8154815290600101906020018083116103f057829003601f168201915b505050918352505060018201546001600160a01b03166020820152600282015460408201526003820154606082015260048201546080820152600582015460a082015260068201805460c0909201916104659061156d565b80601f01602080910402602001604051908101604052809291908181526020018280546104919061156d565b80156104dc5780601f106104b3576101008083540402835291602001916104dc565b820191905f5260205f20905b8154815290600101906020018083116104bf57829003601f168201915b50505091835250506007919091015460ff16151560209091015292915050565b6060600780548060200260200160405190810160405280929190818152602001828054801561055257602002820191905f5260205f20905b81546001600160a01b03168152600190910190602001808311610534575b5050505050905090565b6001600160a01b0382165f90815260046020526040902060070154829060ff1661059957604051635a05a1b160e01b815260040160405180910390fd5b336001600160a01b038416148015906105bc57505f546001600160a01b03163314155b80156105d75750335f9081526005602052604090205460ff16155b156105f55760405163ea8e4eb560e01b815260040160405180910390fd5b60648211156106175760405163cd1220fb60e01b815260040160405180910390fd5b6001600160a01b0383165f81815260046020908152604091829020600501805490869055825181815291820186905292917fea4277b86dd7eef18f6b87b079403796815085e87a145bafd53d7f74fe372ef7910160405180910390a250505050565b610681610ecb565b6001600160a01b038216158061069e57506001600160a01b038116155b156106bc5760405163e6c4247b60e01b815260040160405180910390fd5b600280546001600160a01b038481166001600160a01b03199283168117909355600380549185169190921681179091556040805192835260208301919091527f0d5f5c5aaeae9c54df1d8d38f1d3425e7eb79bb42be6608efecc1fbed97bf002910160405180910390a15050565b610732610ecb565b61073b5f610ef7565b565b60015433906001600160a01b0316811461077a5760405163118cdaa760e01b81526001600160a01b03821660048201526024015b60405180910390fd5b61078381610ef7565b50565b60078181548110610795575f80fd5b5f918252602090912001546001600160a01b0316905081565b5f546001600160a01b031633148015906107d75750335f9081526005602052604090205460ff16155b156107f55760405163ea8e4eb560e01b815260040160405180910390fd5b6001600160a01b0382165f90815260046020526040902060070154829060ff1661083257604051635a05a1b160e01b815260040160405180910390fd5b61083a610f10565b815f0361085a57604051631ee895b760e31b815260040160405180910390fd5b6001600160a01b0383165f908152600460205260408120600381018054919285926108869084906115a5565b909155505060038101545f9061089f906103e8906115ca565b6108aa9060016115a5565b905081600401548111156108c057600482018190555b600382015460048301546040805187815260208101939093528201526001600160a01b038616907fb78ffc24376e62639525bbe511964508847544fe064134c5c4dc2282722c6e879060600160405180910390a2610922858360030154610f2b565b505061093a60015f8051602061188483398151915255565b505050565b5f610948610f10565b6002546001600160a01b0316610971576040516367e2f56b60e11b815260040160405180910390fd5b335f9081526004602052604090206007015460ff16156109a4576040516337450d8560e11b815260040160405180910390fd5b5f8490036109c557604051630b68b9bb60e11b815260040160405180910390fd5b60405180610100016040528086868080601f0160208091040260200160405190810160405280939291908181526020018383808284375f92018290525093855250503360208085019190915242604080860191909152606085018490526001608086015260a08501939093528251601f880182900482028101820190935286835260c0909301928791508690819084018382808284375f920182905250938552505060016020938401525033815260049091526040902081518190610a8a9082611648565b5060208201516001820180546001600160a01b0319166001600160a01b0390921691909117905560408201516002820155606082015160038201556080820151600482015560a0820151600582015560c08201516006820190610aed9082611648565b5060e091909101516007918201805460ff191691151591909117905580546001810182555f9182527fa66cc928b5edb82af9bd49922954155ab7b0942694bea4ce44661d9a8736c688018054336001600160a01b031990911681179091556002546040516370a0823160e01b815260048101929092526001600160a01b0316906370a0823190602401602060405180830381865afa158015610b91573d5f803e3d5ffd5b505050506040513d601f19601f82011682018060405250810190610bb59190611704565b5f03610c2d5760025460405163739cb1c160e11b81523360048201526001600160a01b039091169063e7396382906024016020604051808303815f875af1158015610c02573d5f803e3d5ffd5b505050506040513d601f19601f82011682018060405250810190610c269190611704565b9050610c9a565b600254604051631006579b60e31b81523360048201526001600160a01b0390911690638032bcd890602401602060405180830381865afa158015610c73573d5f803e3d5ffd5b505050506040513d601f19601f82011682018060405250810190610c979190611704565b90505b336001600160a01b03167f99c4fe6a82298d2913c54135db1c01c66667d5c0941d60ed46b1ebd0067fede187874285604051610cd99493929190611743565b60405180910390a29050610cf960015f8051602061188483398151915255565b949350505050565b335f8181526004602052604090206007015460ff16610d3357604051635a05a1b160e01b815260040160405180910390fd5b5f849003610d5457604051630b68b9bb60e11b815260040160405180910390fd5b335f90815260046020526040902080610d6e868883611769565b5060068101610d7e848683611769565b50336001600160a01b03167f6eb3a1c6a4675ba92d44e090515b1ceea358f26565d2854df0c99c3f5eaf985087878787604051610dbe9493929190611823565b60405180910390a2505050505050565b610dd6610ecb565b6001600160a01b038216610dfd5760405163e6c4247b60e01b815260040160405180910390fd5b6001600160a01b0382165f81815260056020908152604091829020805460ff191685151590811790915591519182527f2c59b8f31260880424e870332281eba93ddfef67e37d699cebe5a7ba89f7a8a6910160405180910390a25050565b610e63610ecb565b600180546001600160a01b0383166001600160a01b03199091168117909155610e935f546001600160a01b031690565b6001600160a01b03167f38d16b8cac22d99fc7c124b9cd0de2d3fa1faef420bfe791d8c362d765e2270060405160405180910390a350565b5f546001600160a01b0316331461073b5760405163118cdaa760e01b8152336004820152602401610771565b600180546001600160a01b03191690556107838161123c565b610f1861128b565b60025f8051602061188483398151915255565b6003546001600160a01b0316610f3f575050565b6103e88110158015610f7557506001600160a01b0382165f9081526006602090815260408083206001845290915290205460ff16155b1561103c576001600160a01b0382165f818152600660209081526040808320600180855290835292819020805460ff191684179055519182527fd263113b5849023b599671f25dd1f32814beb3ac9067e26df5b1e41a003b7f23910160405180910390a2600354604051635f5c08cb60e01b81526001600160a01b0390911690635f5c08cb9061100e9085906001908190600401611854565b5f604051808303815f87803b158015611025575f80fd5b505af1158015611037573d5f803e3d5ffd5b505050505b611388811015801561107257506001600160a01b0382165f9081526006602090815260408083206002845290915290205460ff16155b1561113b576001600160a01b0382165f818152600660209081526040808320600280855290835292819020805460ff19166001179055519182527fd263113b5849023b599671f25dd1f32814beb3ac9067e26df5b1e41a003b7f23910160405180910390a2600354604051635f5c08cb60e01b81526001600160a01b0390911690635f5c08cb9061110d908590600290600190600401611854565b5f604051808303815f87803b158015611124575f80fd5b505af1158015611136573d5f803e3d5ffd5b505050505b612710811015801561117157506001600160a01b0382165f9081526006602090815260408083206003845290915290205460ff16155b15611238576001600160a01b0382165f818152600660209081526040808320600380855290835292819020805460ff19166001179055519182527fd263113b5849023b599671f25dd1f32814beb3ac9067e26df5b1e41a003b7f23910160405180910390a260038054604051635f5c08cb60e01b81526001600160a01b0390911691635f5c08cb9161120a918691600190600401611854565b5f604051808303815f87803b158015611221575f80fd5b505af1158015611233573d5f803e3d5ffd5b505050505b5050565b5f80546001600160a01b038381166001600160a01b0319831681178455604051919092169283917f8be0079c531659141344cd1fd0a4f28419497f9722a3daafe3b4186f6b6457e09190a35050565b5f805160206118848339815191525460020361073b57604051633ee5aeb560e01b815260040160405180910390fd5b80356001600160a01b03811681146112d0575f80fd5b919050565b5f602082840312156112e5575f80fd5b6112ee826112ba565b9392505050565b5f81518084525f5b81811015611319576020818501810151868301820152016112fd565b505f602082860101526020601f19601f83011685010191505092915050565b602081525f82516101008060208501526113566101208501836112f5565b915060018060a01b0360208601511660408501526040850151606085015260608501516080850152608085015160a085015260a085015160c085015260c0850151601f198584030160e08601526113ad83826112f5565b92505060e08501516113c28286018215159052565b5090949350505050565b602080825282518282018190525f9190848201906040850190845b8181101561140c5783516001600160a01b0316835292840192918401916001016113e7565b50909695505050505050565b5f8060408385031215611429575f80fd5b611432836112ba565b946020939093013593505050565b5f8060408385031215611451575f80fd5b61145a836112ba565b9150611468602084016112ba565b90509250929050565b5f60208284031215611481575f80fd5b5035919050565b5f8083601f840112611498575f80fd5b50813567ffffffffffffffff8111156114af575f80fd5b6020830191508360208285010111156114c6575f80fd5b9250929050565b5f805f80604085870312156114e0575f80fd5b843567ffffffffffffffff808211156114f7575f80fd5b61150388838901611488565b9096509450602087013591508082111561151b575f80fd5b5061152887828801611488565b95989497509550505050565b5f8060408385031215611545575f80fd5b61154e836112ba565b915060208301358015158114611562575f80fd5b809150509250929050565b600181811c9082168061158157607f821691505b60208210810361159f57634e487b7160e01b5f52602260045260245ffd5b50919050565b808201808211156115c457634e487b7160e01b5f52601160045260245ffd5b92915050565b5f826115e457634e487b7160e01b5f52601260045260245ffd5b500490565b634e487b7160e01b5f52604160045260245ffd5b601f82111561093a57805f5260205f20601f840160051c810160208510156116225750805b601f840160051c820191505b81811015611641575f815560010161162e565b5050505050565b815167ffffffffffffffff811115611662576116626115e9565b61167681611670845461156d565b846115fd565b602080601f8311600181146116a9575f84156116925750858301515b5f19600386901b1c1916600185901b178555611233565b5f85815260208120601f198616915b828110156116d7578886015182559484019460019091019084016116b8565b50858210156116f457878501515f19600388901b60f8161c191681555b5050505050600190811b01905550565b5f60208284031215611714575f80fd5b5051919050565b81835281816020850137505f828201602090810191909152601f909101601f19169091010190565b606081525f61175660608301868861171b565b6020830194909452506040015292915050565b67ffffffffffffffff831115611781576117816115e9565b6117958361178f835461156d565b836115fd565b5f601f8411600181146117c6575f85156117af5750838201355b5f19600387901b1c1916600186901b178355611641565b5f83815260208120601f198716915b828110156117f557868501358255602094850194600190920191016117d5565b5086821015611811575f1960f88860031b161c19848701351681555b505060018560011b0183555050505050565b604081525f61183660408301868861171b565b828103602084015261184981858761171b565b979650505050505050565b6001600160a01b03939093168352602083019190915260408201526080606082018190525f9082015260a0019056fe9b779b17422d0df92223018b32b4d1fa46e071723d6817e2486d003becc55f00a26469706673582212201b42522079b6d6384a5e4216b1b973d2023cd265015b6a9882e7c1edfa5ae36a64736f6c63430008180033",
  "linkReferences": {},
  "deployedLinkReferences": {}
}