{
  "_format": "hh-sol-artifact-1",
  "contractName": "XPBadge",
  "sourceName": "contracts/XPBadge.sol",
  "abi": [
    {
      "inputs": [
        {
          "internalType": "string",
          "name": "_uri",
          "type": "string"
        }
      ],
      "stateMutability": "nonpayable",
      "type": "constructor"
    },
    {
      "inputs": [
        {
          "internalType": "address",
          "name": "sender",
          "type": "address"
        },
        {
          "internalType": "uint256",
          "name": "balance",
          "type": "uint256"
        },
        {
          "internalType": "uint256",
          "name": "needed",
          "type": "uint256"
        },
        {
          "internalType": "uint256",
          "name": "tokenId",
          "type": "uint256"
        }
      ],
      "name": "ERC1155InsufficientBalance",
      "type": "error"
    },
    {
      "inputs": [
        {
          "internalType": "address",
          "name": "approver",
          "type": "address"
        }
      ],
      "name": "ERC1155InvalidApprover",
      "type": "error"
    },
    {
      "inputs": [
        {
          "internalType": "uint256",
          "name": "idsLength",
          "type": "uint256"
        },
        {
          "internalType": "uint256",
          "name": "valuesLength",
          "type": "uint256"
        }
      ],
      "name": "ERC1155InvalidArrayLength",
      "type": "error"
    },
    {
      "inputs": [
        {
          "internalType": "address",
          "name": "operator",
          "type": "address"
        }
      ],
      "name": "ERC1155InvalidOperator",
      "type": "error"
    },
    {
      "inputs": [
        {
          "internalType": "address",
          "name": "receiver",
          "type": "address"
        }
      ],
      "name": "ERC1155InvalidReceiver",
      "type": "error"
    },
    {
      "inputs": [
        {
          "internalType": "address",
          "name": "sender",
          "type": "address"
        }
      ],
      "name": "ERC1155InvalidSender",
      "type": "error"
    },
    {
      "inputs": [
        {
          "internalType": "address",
          "name": "operator",
          "type": "address"
        },
        {
          "internalType": "address",
          "name": "owner",
          "type": "address"
        }
      ],
      "name": "ERC1155MissingApprovalForAll",
      "type": "error"
    },
    {
      "inputs": [],
      "name": "InvalidAddress",
      "type": "error"
    },
    {
      "inputs": [],
      "name": "LengthMismatch",
      "type": "error"
    },
    {
      "inputs": [],
      "name": "NotAuthorized",
      "type": "error"
    },
    {
      "inputs": [
        {
          "internalType": "address",
          "name": "owner",
          "type": "address"
        }
      ],
      "name": "OwnableInvalidOwner",
      "type": "error"
    },
    {
      "inputs": [
        {
          "internalType": "address",
          "name": "account",
          "type": "address"
        }
      ],
      "name": "OwnableUnauthorizedAccount",
      "type": "error"
    },
    {
      "anonymous": false,
      "inputs": [
        {
          "indexed": true,
          "internalType": "address",
          "name": "account",
          "type": "address"
        },
        {
          "indexed": true,
          "internalType": "address",
          "name": "operator",
          "type": "address"
        },
        {
          "indexed": false,
          "internalType": "bool",
          "name": "approved",
          "type": "bool"
        }
      ],
      "name": "ApprovalForAll",
      "type": "event"
    },
    {
      "anonymous": false,
      "inputs": [
        {
          "indexed": true,
          "internalType": "address",
          "name": "contractAddress",
          "type": "address"
        },
        {
          "indexed": false,
          "internalType": "bool",
          "name": "status",
          "type": "bool"
        }
      ],
      "name": "AuthorizationUpdated",
      "type": "event"
    },
    {
      "anonymous": false,
      "inputs": [
        {
          "indexed": true,
          "internalType": "address",
          "name": "user",
          "type": "address"
        },
        {
          "indexed": false,
          "internalType": "uint256[]",
          "name": "badgeIds",
          "type": "uint256[]"
        },
        {
          "indexed": false,
          "internalType": "uint256[]",
          "name": "amounts",
          "type": "uint256[]"
        }
      ],
      "name": "BadgeBatchMinted",
      "type": "event"
    },
    {
      "anonymous": false,
      "inputs": [
        {
          "indexed": true,
          "internalType": "address",
          "name": "user",
          "type": "address"
        },
        {
          "indexed": true,
          "internalType": "uint256",
          "name": "badgeId",
          "type": "uint256"
        },
        {
          "indexed": false,
          "internalType": "uint256",
          "name": "amount",
          "type": "uint256"
        }
      ],
      "name": "BadgeMinted",
      "type": "event"
    },
    {
      "anonymous": false,
      "inputs": [
        {
          "indexed": true,
          "internalType": "address",
          "name": "previousOwner",
          "type": "address"
        },
        {
          "indexed": true,
          "internalType": "address",
          "name": "newOwner",
          "type": "address"
        }
      ],
      "name": "OwnershipTransferred",
      "type": "event"
    },
    {
      "anonymous": false,
      "inputs": [
        {
          "indexed": true,
          "internalType": "address",
          "name": "operator",
          "type": "address"
        },
        {
          "indexed": true,
          "internalType": "address",
          "name": "from",
          "type": "address"
        },
        {
          "indexed": true,
          "internalType": "address",
          "name": "to",
          "type": "address"
        },
        {
          "indexed": false,
          "internalType": "uint256[]",
          "name": "ids",
          "type": "uint256[]"
        },
        {
          "indexed": false,
          "internalType": "uint256[]",
          "name": "values",
          "type": "uint256[]"
        }
      ],
      "name": "TransferBatch",
      "type": "event"
    },
    {
      "anonymous": false,
      "inputs": [
        {
          "indexed": true,
          "internalType": "address",
          "name": "operator",
          "type": "address"
        },
        {
          "indexed": true,
          "internalType": "address",
          "name": "from",
          "type": "address"
        },
        {
          "indexed": true,
          "internalType": "address",
          "name": "to",
          "type": "address"
        },
        {
          "indexed": false,
          "internalType": "uint256",
          "name": "id",
          "type": "uint256"
        },
        {
          "indexed": false,
          "internalType": "uint256",
          "name": "value",
          "type": "uint256"
        }
      ],
      "name": "TransferSingle",
      "type": "event"
    },
    {
      "anonymous": false,
      "inputs": [
        {
          "indexed": false,
          "internalType": "string",
          "name": "value",
          "type": "string"
        },
        {
          "indexed": true,
          "internalType": "uint256",
          "name": "id",
          "type": "uint256"
        }
      ],
      "name": "URI",
      "type": "event"
    },
    {
      "anonymous": false,
      "inputs": [
        {
          "indexed": false,
          "internalType": "string",
          "name": "newURI",
          "type": "string"
        }
      ],
      "name": "URIUpdated",
      "type": "event"
    },
    {
      "inputs": [
        {
          "internalType": "address",
          "name": "",
          "type": "address"
        }
      ],
      "name": "authorizedMintingContracts",
      "outputs": [
        {
          "internalType": "bool",
          "name": "",
          "type": "bool"
        }
      ],
      "stateMutability": "view",
      "type": "function"
    },
    {
      "inputs": [
        {
          "internalType": "address",
          "name": "account",
          "type": "address"
        },
        {
          "internalType": "uint256",
          "name": "id",
          "type": "uint256"
        }
      ],
      "name": "balanceOf",
      "outputs": [
        {
          "internalType": "uint256",
          "name": "",
          "type": "uint256"
        }
      ],
      "stateMutability": "view",
      "type": "function"
    },
    {
      "inputs": [
        {
          "internalType": "address[]",
          "name": "accounts",
          "type": "address[]"
        },
        {
          "internalType": "uint256[]",
          "name": "ids",
          "type": "uint256[]"
        }
      ],
      "name": "balanceOfBatch",
      "outputs": [
        {
          "internalType": "uint256[]",
          "name": "",
          "type": "uint256[]"
        }
      ],
      "stateMutability": "view",
      "type": "function"
    },
    {
      "inputs": [
        {
          "internalType": "address",
          "name": "account",
          "type": "address"
        },
        {
          "internalType": "address",
          "name": "operator",
          "type": "address"
        }
      ],
      "name": "isApprovedForAll",
      "outputs": [
        {
          "internalType": "bool",
          "name": "",
          "type": "bool"
        }
      ],
      "stateMutability": "view",
      "type": "function"
    },
    {
      "inputs": [
        {
          "internalType": "address",
          "name": "_user",
          "type": "address"
        },
        {
          "internalType": "uint256",
          "name": "_badgeId",
          "type": "uint256"
        },
        {
          "internalType": "uint256",
          "name": "_amount",
          "type": "uint256"
        },
        {
          "internalType": "bytes",
          "name": "_data",
          "type": "bytes"
        }
      ],
      "name": "mintBadge",
      "outputs": [],
      "stateMutability": "nonpayable",
      "type": "function"
    },
    {
      "inputs": [
        {
          "internalType": "address",
          "name": "_user",
          "type": "address"
        },
        {
          "internalType": "uint256[]",
          "name": "_badgeIds",
          "type": "uint256[]"
        },
        {
          "internalType": "uint256[]",
          "name": "_amounts",
          "type": "uint256[]"
        },
        {
          "internalType": "bytes",
          "name": "_data",
          "type": "bytes"
        }
      ],
      "name": "mintBatchBadges",
      "outputs": [],
      "stateMutability": "nonpayable",
      "type": "function"
    },
    {
      "inputs": [],
      "name": "name",
      "outputs": [
        {
          "internalType": "string",
          "name": "",
          "type": "string"
        }
      ],
      "stateMutability": "view",
      "type": "function"
    },
    {
      "inputs": [],
      "name": "owner",
      "outputs": [
        {
          "internalType": "address",
          "name": "",
          "type": "address"
        }
      ],
      "stateMutability": "view",
      "type": "function"
    },
    {
      "inputs": [],
      "name": "renounceOwnership",
      "outputs": [],
      "stateMutability": "nonpayable",
      "type": "function"
    },
    {
      "inputs": [
        {
          "internalType": "address",
          "name": "from",
          "type": "address"
        },
        {
          "internalType": "address",
          "name": "to",
          "type": "address"
        },
        {
          "internalType": "uint256[]",
          "name": "ids",
          "type": "uint256[]"
        },
        {
          "internalType": "uint256[]",
          "name": "values",
          "type": "uint256[]"
        },
        {
          "internalType": "bytes",
          "name": "data",
          "type": "bytes"
        }
      ],
      "name": "safeBatchTransferFrom",
      "outputs": [],
      "stateMutability": "nonpayable",
      "type": "function"
    },
    {
      "inputs": [
        {
          "internalType": "address",
          "name": "from",
          "type": "address"
        },
        {
          "internalType": "address",
          "name": "to",
          "type": "address"
        },
        {
          "internalType": "uint256",
          "name": "id",
          "type": "uint256"
        },
        {
          "internalType": "uint256",
          "name": "value",
          "type": "uint256"
        },
        {
          "internalType": "bytes",
          "name": "data",
          "type": "bytes"
        }
      ],
      "name": "safeTransferFrom",
      "outputs": [],
      "stateMutability": "nonpayable",
      "type": "function"
    },
    {
      "inputs": [
        {
          "internalType": "address",
          "name": "operator",
          "type": "address"
        },
        {
          "internalType": "bool",
          "name": "approved",
          "type": "bool"
        }
      ],
      "name": "setApprovalForAll",
      "outputs": [],
      "stateMutability": "nonpayable",
      "type": "function"
    },
    {
      "inputs": [
        {
          "internalType": "address",
          "name": "_contract",
          "type": "address"
        },
        {
          "internalType": "bool",
          "name": "_status",
          "type": "bool"
        }
      ],
      "name": "setAuthorizedContract",
      "outputs": [],
      "stateMutability": "nonpayable",
      "type": "function"
    },
    {
      "inputs": [
        {
          "internalType": "string",
          "name": "_newuri",
          "type": "string"
        }
      ],
      "name": "setURI",
      "outputs": [],
      "stateMutability": "nonpayable",
      "type": "function"
    },
    {
      "inputs": [
        {
          "internalType": "bytes4",
          "name": "interfaceId",
          "type": "bytes4"
        }
      ],
      "name": "supportsInterface",
      "outputs": [
        {
          "internalType": "bool",
          "name": "",
          "type": "bool"
        }
      ],
      "stateMutability": "view",
      "type": "function"
    },
    {
      "inputs": [],
      "name": "symbol",
      "outputs": [
        {
          "internalType": "string",
          "name": "",
          "type": "string"
        }
      ],
      "stateMutability": "view",
      "type": "function"
    },
    {
      "inputs": [
        {
          "internalType": "address",
          "name": "newOwner",
          "type": "address"
        }
      ],
      "name": "transferOwnership",
      "outputs": [],
      "stateMutability": "nonpayable",
      "type": "function"
    },
    {
      "inputs": [
        {
          "internalType": "uint256",
          "name": "",
          "type": "uint256"
        }
      ],
      "name": "uri",
      "outputs": [
        {
          "internalType": "string",
          "name": "",
          "type": "string"
        }
      ],
      "stateMutability": "view",
      "type": "function"
    }
  ],
  "bytecode": "0x60c0604052601660809081527f52697475616c20427261696e205850204261646765730000000000000000000060a0526004906200003e908262000225565b506040805180820190915260078152665242424144474560c81b60208201526005906200006c908262000225565b5034801562000079575f80fd5b5060405162001ea238038062001ea28339810160408190526200009c9162000315565b3381620000a98162000124565b506001600160a01b038116620000d857604051631e4fbdf760e01b81525f600482015260240160405180910390fd5b620000e38162000136565b507fe3afa94108b5f5e82e5f6e539d161ff4b5402a85f696c67b9768ec3ae54ce36681604051620001159190620003c8565b60405180910390a150620003fc565b600262000132828262000225565b5050565b600380546001600160a01b038381166001600160a01b0319831681179093556040519116919082907f8be0079c531659141344cd1fd0a4f28419497f9722a3daafe3b4186f6b6457e0905f90a35050565b634e487b7160e01b5f52604160045260245ffd5b600181811c90821680620001b057607f821691505b602082108103620001cf57634e487b7160e01b5f52602260045260245ffd5b50919050565b601f8211156200022057805f5260205f20601f840160051c81016020851015620001fc5750805b601f840160051c820191505b818110156200021d575f815560010162000208565b50505b505050565b81516001600160401b0381111562000241576200024162000187565b62000259816200025284546200019b565b84620001d5565b602080601f8311600181146200028f575f8415620002775750858301515b5f19600386901b1c1916600185901b178555620002e9565b5f85815260208120601f198616915b82811015620002bf578886015182559484019460019091019084016200029e565b5085821015620002dd57878501515f19600388901b60f8161c191681555b505060018460011b0185555b505050505050565b5f5b838110156200030d578181015183820152602001620002f3565b50505f910152565b5f6020828403121562000326575f80fd5b81516001600160401b03808211156200033d575f80fd5b818401915084601f83011262000351575f80fd5b81518181111562000366576200036662000187565b604051601f8201601f19908116603f0116810190838211818310171562000391576200039162000187565b81604052828152876020848701011115620003aa575f80fd5b620003bd836020830160208801620002f1565b979650505050505050565b602081525f8251806020840152620003e8816040850160208701620002f1565b601f01601f19169190910160400192915050565b611a98806200040a5f395ff3fe608060405234801561000f575f80fd5b5060043610610110575f3560e01c80638da5cb5b1161009e578063e985e9c51161006e578063e985e9c514610231578063f242432a1461026c578063f2fa73921461027f578063f2fde38b14610292578063fcb16389146102a5575f80fd5b80638da5cb5b146101e857806395d89b4114610203578063a22cb4651461020b578063d6fcc5e41461021e575f80fd5b80630e89341c116100e45780630e89341c146101875780632eb2c2d61461019a5780634e1273f4146101ad5780635f5c08cb146101cd578063715018a6146101e0575f80fd5b8062fdd58e1461011457806301ffc9a71461013a57806302fe53051461015d57806306fdde0314610172575b5f80fd5b61012761012236600461112f565b6102c7565b6040519081526020015b60405180910390f35b61014d61014836600461116c565b6102ee565b6040519015158152602001610131565b61017061016b3660046111d2565b61033d565b005b61017a6103c0565b6040516101319190611253565b61017a610195366004611265565b61044c565b6101706101a83660046113b9565b6104de565b6101c06101bb36600461145b565b6104fd565b604051610131919061154e565b6101706101db366004611560565b6105cc565b6101706106c7565b6003546040516001600160a01b039091168152602001610131565b61017a6106da565b6101706102193660046115c2565b6106e7565b61017061022c36600461163b565b6106f6565b61014d61023f3660046116dd565b6001600160a01b039182165f90815260016020908152604080832093909416825291909152205460ff1690565b61017061027a36600461170e565b610877565b61017061028d3660046115c2565b61088d565b6101706102a036600461176d565b61091a565b61014d6102b336600461176d565b60066020525f908152604090205460ff1681565b5f818152602081815260408083206001600160a01b03861684529091529020545b92915050565b5f6001600160e01b03198216636cdb3d1360e11b148061031e57506001600160e01b031982166303a24d0760e21b145b806102e857506301ffc9a760e01b6001600160e01b03198316146102e8565b610345610957565b61038382828080601f0160208091040260200160405190810160405280939291908181526020018383808284375f9201919091525061098492505050565b7fe3afa94108b5f5e82e5f6e539d161ff4b5402a85f696c67b9768ec3ae54ce36682826040516103b4929190611786565b60405180910390a15050565b600480546103cd906117b4565b80601f01602080910402602001604051908101604052809291908181526020018280546103f9906117b4565b80156104445780601f1061041b57610100808354040283529160200191610444565b820191905f5260205f20905b81548152906001019060200180831161042757829003601f168201915b505050505081565b60606002805461045b906117b4565b80601f0160208091040260200160405190810160405280929190818152602001828054610487906117b4565b80156104d25780601f106104a9576101008083540402835291602001916104d2565b820191905f5260205f20905b8154815290600101906020018083116104b557829003601f168201915b50505050509050919050565b6104e9335b86610990565b6104f68585858585610a08565b5050505050565b606081518351146105335781518351604051635b05999160e01b8152600481019290925260248201526044015b60405180910390fd5b5f83516001600160401b0381111561054d5761054d61127c565b604051908082528060200260200182016040528015610576578160200160208202803683370190505b5090505f5b84518110156105c45760208082028601015161059f906020808402870101516102c7565b8282815181106105b1576105b16117ec565b602090810291909101015260010161057b565b509392505050565b6003546001600160a01b031633148015906105f65750335f9081526006602052604090205460ff16155b156106145760405163ea8e4eb560e01b815260040160405180910390fd5b6001600160a01b03851661063b5760405163e6c4247b60e01b815260040160405180910390fd5b61067c85858585858080601f0160208091040260200160405190810160405280939291908181526020018383808284375f92019190915250610a6892505050565b83856001600160a01b03167f7e6f783c7d2fd31e9979cbb09639e191e20de085caf64b2875d53ff862aa3baa856040516106b891815260200190565b60405180910390a35050505050565b6106cf610957565b6106d85f610acc565b565b600580546103cd906117b4565b6106f2338383610b1d565b5050565b6003546001600160a01b031633148015906107205750335f9081526006602052604090205460ff16155b1561073e5760405163ea8e4eb560e01b815260040160405180910390fd5b6001600160a01b0387166107655760405163e6c4247b60e01b815260040160405180910390fd5b848314610788576040516001621398b960e31b0319815260040160405180910390fd5b610827878787808060200260200160405190810160405280939291908181526020018383602002808284375f9201919091525050604080516020808b0282810182019093528a82529093508a9250899182918501908490808284375f9201919091525050604080516020601f8a0181900481028201810190925288815292508891508790819084018382808284375f92019190915250610bda92505050565b866001600160a01b03167f722f3655e336a84f56c7c934bbf794b31230596f8067f6db6bf830c67c96227f878787876040516108669493929190611830565b60405180910390a250505050505050565b610880336104e3565b6104f68585858585610c18565b610895610957565b6001600160a01b0382166108bc5760405163e6c4247b60e01b815260040160405180910390fd5b6001600160a01b0382165f81815260066020908152604091829020805460ff191685151590811790915591519182527f2c59b8f31260880424e870332281eba93ddfef67e37d699cebe5a7ba89f7a8a6910160405180910390a25050565b610922610957565b6001600160a01b03811661094b57604051631e4fbdf760e01b81525f600482015260240161052a565b61095481610acc565b50565b6003546001600160a01b031633146106d85760405163118cdaa760e01b815233600482015260240161052a565b60026106f282826118aa565b816001600160a01b0316816001600160a01b0316141580156109d757506001600160a01b038082165f9081526001602090815260408083209386168352929052205460ff16155b156106f25760405163711bec9160e11b81526001600160a01b0380841660048301528216602482015260440161052a565b6001600160a01b038416610a3157604051632bfa23e760e11b81525f600482015260240161052a565b6001600160a01b038516610a5957604051626a0d4560e21b81525f600482015260240161052a565b6104f685858585856001610ca5565b6001600160a01b038416610a9157604051632bfa23e760e11b81525f600482015260240161052a565b60408051600180825260208201869052818301908152606082018590526080820190925290610ac45f8784848784610ca5565b505050505050565b600380546001600160a01b038381166001600160a01b0319831681179093556040519116919082907f8be0079c531659141344cd1fd0a4f28419497f9722a3daafe3b4186f6b6457e0905f90a35050565b6001600160a01b038316610b4657604051631f18c42760e11b81525f600482015260240161052a565b6001600160a01b038216610b6e5760405162ced3e160e81b81525f600482015260240161052a565b6001600160a01b038381165f81815260016020908152604080832094871680845294825291829020805460ff191686151590811790915591519182527f17307eab39ab6107e8899845ad3d59bd9653f200f220920489ca2b5937696c31910160405180910390a3505050565b6001600160a01b038416610c0357604051632bfa23e760e11b81525f600482015260240161052a565b610c125f858585856001610ca5565b50505050565b6001600160a01b038416610c4157604051632bfa23e760e11b81525f600482015260240161052a565b6001600160a01b038516610c6957604051626a0d4560e21b81525f600482015260240161052a565b60408051600180825260208201869052818301908152606082018590526080820190925290610c9c87878484875f610ca5565b50505050505050565b610cb186868686610cfd565b6001600160a01b03851615610ac457338115610cda57610cd5818888888888610f0c565b610c9c565b60208581015190850151610cf2838a8a85858a61102d565b505050505050505050565b8051825114610d2c5781518151604051635b05999160e01b81526004810192909252602482015260440161052a565b335f5b8351811015610e2e576020818102858101820151908501909101516001600160a01b03881615610de0575f828152602081815260408083206001600160a01b038c16845290915290205481811015610dba576040516303dee4c560e01b81526001600160a01b038a16600482015260248101829052604481018390526064810184905260840161052a565b5f838152602081815260408083206001600160a01b038d16845290915290209082900390555b6001600160a01b03871615610e24575f828152602081815260408083206001600160a01b038b16845290915281208054839290610e1e908490611965565b90915550505b5050600101610d2f565b508251600103610eae5760208301515f906020840151909150856001600160a01b0316876001600160a01b0316846001600160a01b03167fc3d58168c5ae7397731d063d5bbf3d657854427343f4c083240f7aacaa2d0f628585604051610e9f929190918252602082015260400190565b60405180910390a450506104f6565b836001600160a01b0316856001600160a01b0316826001600160a01b03167f4a39dc06d4c0dbc64b70af90fd698a233a518aa5d07e595d983b8c0526c8f7fb8686604051610efd929190611984565b60405180910390a45050505050565b6001600160a01b0384163b15610ac45760405163bc197c8160e01b81526001600160a01b0385169063bc197c8190610f5090899089908890889088906004016119b1565b6020604051808303815f875af1925050508015610f8a575060408051601f3d908101601f19168201909252610f8791810190611a0e565b60015b610ff1573d808015610fb7576040519150601f19603f3d011682016040523d82523d5f602084013e610fbc565b606091505b5080515f03610fe957604051632bfa23e760e11b81526001600160a01b038616600482015260240161052a565b805160208201fd5b6001600160e01b0319811663bc197c8160e01b14610c9c57604051632bfa23e760e11b81526001600160a01b038616600482015260240161052a565b6001600160a01b0384163b15610ac45760405163f23a6e6160e01b81526001600160a01b0385169063f23a6e61906110719089908990889088908890600401611a29565b6020604051808303815f875af19250505080156110ab575060408051601f3d908101601f191682019092526110a891810190611a0e565b60015b6110d8573d808015610fb7576040519150601f19603f3d011682016040523d82523d5f602084013e610fbc565b6001600160e01b0319811663f23a6e6160e01b14610c9c57604051632bfa23e760e11b81526001600160a01b038616600482015260240161052a565b80356001600160a01b038116811461112a575f80fd5b919050565b5f8060408385031215611140575f80fd5b61114983611114565b946020939093013593505050565b6001600160e01b031981168114610954575f80fd5b5f6020828403121561117c575f80fd5b813561118781611157565b9392505050565b5f8083601f84011261119e575f80fd5b5081356001600160401b038111156111b4575f80fd5b6020830191508360208285010111156111cb575f80fd5b9250929050565b5f80602083850312156111e3575f80fd5b82356001600160401b038111156111f8575f80fd5b6112048582860161118e565b90969095509350505050565b5f81518084525f5b8181101561123457602081850181015186830182015201611218565b505f602082860101526020601f19601f83011685010191505092915050565b602081525f6111876020830184611210565b5f60208284031215611275575f80fd5b5035919050565b634e487b7160e01b5f52604160045260245ffd5b604051601f8201601f191681016001600160401b03811182821017156112b8576112b861127c565b604052919050565b5f6001600160401b038211156112d8576112d861127c565b5060051b60200190565b5f82601f8301126112f1575f80fd5b81356020611306611301836112c0565b611290565b8083825260208201915060208460051b870101935086841115611327575f80fd5b602086015b84811015611343578035835291830191830161132c565b509695505050505050565b5f82601f83011261135d575f80fd5b81356001600160401b038111156113765761137661127c565b611389601f8201601f1916602001611290565b81815284602083860101111561139d575f80fd5b816020850160208301375f918101602001919091529392505050565b5f805f805f60a086880312156113cd575f80fd5b6113d686611114565b94506113e460208701611114565b935060408601356001600160401b03808211156113ff575f80fd5b61140b89838a016112e2565b94506060880135915080821115611420575f80fd5b61142c89838a016112e2565b93506080880135915080821115611441575f80fd5b5061144e8882890161134e565b9150509295509295909350565b5f806040838503121561146c575f80fd5b82356001600160401b0380821115611482575f80fd5b818501915085601f830112611495575f80fd5b813560206114a5611301836112c0565b82815260059290921b840181019181810190898411156114c3575f80fd5b948201945b838610156114e8576114d986611114565b825294820194908201906114c8565b965050860135925050808211156114fd575f80fd5b5061150a858286016112e2565b9150509250929050565b5f815180845260208085019450602084015f5b8381101561154357815187529582019590820190600101611527565b509495945050505050565b602081525f6111876020830184611514565b5f805f805f60808688031215611574575f80fd5b61157d86611114565b9450602086013593506040860135925060608601356001600160401b038111156115a5575f80fd5b6115b18882890161118e565b969995985093965092949392505050565b5f80604083850312156115d3575f80fd5b6115dc83611114565b9150602083013580151581146115f0575f80fd5b809150509250929050565b5f8083601f84011261160b575f80fd5b5081356001600160401b03811115611621575f80fd5b6020830191508360208260051b85010111156111cb575f80fd5b5f805f805f805f6080888a031215611651575f80fd5b61165a88611114565b965060208801356001600160401b0380821115611675575f80fd5b6116818b838c016115fb565b909850965060408a0135915080821115611699575f80fd5b6116a58b838c016115fb565b909650945060608a01359150808211156116bd575f80fd5b506116ca8a828b0161118e565b989b979a50959850939692959293505050565b5f80604083850312156116ee575f80fd5b6116f783611114565b915061170560208401611114565b90509250929050565b5f805f805f60a08688031215611722575f80fd5b61172b86611114565b945061173960208701611114565b9350604086013592506060860135915060808601356001600160401b03811115611761575f80fd5b61144e8882890161134e565b5f6020828403121561177d575f80fd5b61118782611114565b60208152816020820152818360408301375f818301604090810191909152601f909201601f19160101919050565b600181811c908216806117c857607f821691505b6020821081036117e657634e487b7160e01b5f52602260045260245ffd5b50919050565b634e487b7160e01b5f52603260045260245ffd5b8183525f6001600160fb1b03831115611817575f80fd5b8260051b80836020870137939093016020019392505050565b604081525f611843604083018688611800565b8281036020840152611856818587611800565b979650505050505050565b601f8211156118a557805f5260205f20601f840160051c810160208510156118865750805b601f840160051c820191505b818110156104f6575f8155600101611892565b505050565b81516001600160401b038111156118c3576118c361127c565b6118d7816118d184546117b4565b84611861565b602080601f83116001811461190a575f84156118f35750858301515b5f19600386901b1c1916600185901b178555610ac4565b5f85815260208120601f198616915b8281101561193857888601518255948401946001909101908401611919565b508582101561195557878501515f19600388901b60f8161c191681555b5050505050600190811b01905550565b808201808211156102e857634e487b7160e01b5f52601160045260245ffd5b604081525f6119966040830185611514565b82810360208401526119a88185611514565b95945050505050565b6001600160a01b0386811682528516602082015260a0604082018190525f906119dc90830186611514565b82810360608401526119ee8186611514565b90508281036080840152611a028185611210565b98975050505050505050565b5f60208284031215611a1e575f80fd5b815161118781611157565b6001600160a01b03868116825285166020820152604081018490526060810183905260a0608082018190525f906118569083018461121056fea2646970667358221220aa6e9dfebef617b7b182bceb592a90d48d0716cae05f262ca2495472637a17b264736f6c63430008180033",
  "linkReferences": {},
  "deployedLinkReferences": {}
}