{
  "_format": "hh-sol-artifact-1",
  "contractName": "BrainRegistry",
  "sourceName": "contracts/BrainRegistry.sol",
  "abi": [
    {
      "inputs": [],
      "stateMutability": "nonpayable",
      "type": "constructor"
    },
    {
      "inputs": [],
      "name": "InvalidAddress",
      "type": "error"
    },
    {
      "inputs": [],
      "name": "InvalidScoreValue",
      "type": "error"
    },
    {
      "inputs": [],
      "name": "InvalidXPValue",
      "type": "error"
    },
    {
      "inputs": [],
      "name": "NotAuthorized",
      "type": "error"
    },
    {
      "inputs": [
        {
          "internalType": "address",
          "name": "owner",
          "type": "address"
        }
      ],
      "name": "OwnableInvalidOwner",
      "type": "error"
    },
    {
      "inputs": [
        {
          "internalType": "address",
          "name": "account",
          "type": "address"
        }
      ],
      "name": "OwnableUnauthorizedAccount",
      "type": "error"
    },
    {
      "inputs": [],
      "name": "ProfileAlreadyExists",
      "type": "error"
    },
    {
      "inputs": [],
      "name": "ProfileDoesNotExist",
      "type": "error"
    },
    {
      "inputs": [],
      "name": "ReentrancyGuardReentrantCall",
      "type": "error"
    },
    {
      "inputs": [],
      "name": "RegistryNotLinked",
      "type": "error"
    },
    {
      "inputs": [],
      "name": "UsernameEmpty",
      "type": "error"
    },
    {
      "anonymous": false,
      "inputs": [
        {
          "indexed": true,
          "internalType": "address",
          "name": "contractAddress",
          "type": "address"
        },
        {
          "indexed": false,
          "internalType": "bool",
          "name": "status",
          "type": "bool"
        }
      ],
      "name": "AuthorizationUpdated",
      "type": "event"
    },
    {
      "anonymous": false,
      "inputs": [
        {
          "indexed": true,
          "internalType": "address",
          "name": "user",
          "type": "address"
        },
        {
          "indexed": false,
          "internalType": "uint256",
          "name": "oldScore",
          "type": "uint256"
        },
        {
          "indexed": false,
          "internalType": "uint256",
          "name": "newScore",
          "type": "uint256"
        }
      ],
      "name": "BrainScoreUpdated",
      "type": "event"
    },
    {
      "anonymous": false,
      "inputs": [
        {
          "indexed": false,
          "internalType": "address",
          "name": "passAddress",
          "type": "address"
        },
        {
          "indexed": false,
          "internalType": "address",
          "name": "badgeAddress",
          "type": "address"
        }
      ],
      "name": "LinkContractsUpdated",
      "type": "event"
    },
    {
      "anonymous": false,
      "inputs": [
        {
          "indexed": true,
          "internalType": "address",
          "name": "user",
          "type": "address"
        },
        {
          "indexed": false,
          "internalType": "uint256",
          "name": "badgeId",
          "type": "uint256"
        }
      ],
      "name": "MilestoneBadgeTriggered",
      "type": "event"
    },
    {
      "anonymous": false,
      "inputs": [
        {
          "indexed": true,
          "internalType": "address",
          "name": "previousOwner",
          "type": "address"
        },
        {
          "indexed": true,
          "internalType": "address",
          "name": "newOwner",
          "type": "address"
        }
      ],
      "name": "OwnershipTransferStarted",
      "type": "event"
    },
    {
      "anonymous": false,
      "inputs": [
        {
          "indexed": true,
          "internalType": "address",
          "name": "previousOwner",
          "type": "address"
        },
        {
          "indexed": true,
          "internalType": "address",
          "name": "newOwner",
          "type": "address"
        }
      ],
      "name": "OwnershipTransferred",
      "type": "event"
    },
    {
      "anonymous": false,
      "inputs": [
        {
          "indexed": true,
          "internalType": "address",
          "name": "user",
          "type": "address"
        },
        {
          "indexed": false,
          "internalType": "string",
          "name": "username",
          "type": "string"
        },
        {
          "indexed": false,
          "internalType": "uint256",
          "name": "timestamp",
          "type": "uint256"
        },
        {
          "indexed": false,
          "internalType": "uint256",
          "name": "passId",
          "type": "uint256"
        }
      ],
      "name": "ProfileCreated",
      "type": "event"
    },
    {
      "anonymous": false,
      "inputs": [
        {
          "indexed": true,
          "internalType": "address",
          "name": "user",
          "type": "address"
        },
        {
          "indexed": false,
          "internalType": "string",
          "name": "username",
          "type": "string"
        },
        {
          "indexed": false,
          "internalType": "string",
          "name": "metadataURI",
          "type": "string"
        }
      ],
      "name": "ProfileUpdated",
      "type": "event"
    },
    {
      "anonymous": false,
      "inputs": [
        {
          "indexed": true,
          "internalType": "address",
          "name": "user",
          "type": "address"
        },
        {
          "indexed": false,
          "internalType": "uint256",
          "name": "amount",
          "type": "uint256"
        },
        {
          "indexed": false,
          "internalType": "uint256",
          "name": "newXP",
          "type": "uint256"
        },
        {
          "indexed": false,
          "internalType": "uint256",
          "name": "newLevel",
          "type": "uint256"
        }
      ],
      "name": "XPAdded",
      "type": "event"
    },
    {
      "inputs": [],
      "name": "acceptOwnership",
      "outputs": [],
      "stateMutability": "nonpayable",
      "type": "function"
    },
    {
      "inputs": [
        {
          "internalType": "address",
          "name": "_user",
          "type": "address"
        },
        {
          "internalType": "uint256",
          "name": "_amount",
          "type": "uint256"
        }
      ],
      "name": "addXP",
      "outputs": [],
      "stateMutability": "nonpayable",
      "type": "function"
    },
    {
      "inputs": [
        {
          "internalType": "address",
          "name": "",
          "type": "address"
        }
      ],
      "name": "authorizedContracts",
      "outputs": [
        {
          "internalType": "bool",
          "name": "",
          "type": "bool"
        }
      ],
      "stateMutability": "view",
      "type": "function"
    },
    {
      "inputs": [],
      "name": "brainPassNFTAddress",
      "outputs": [
        {
          "internalType": "address",
          "name": "",
          "type": "address"
        }
      ],
      "stateMutability": "view",
      "type": "function"
    },
    {
      "inputs": [
        {
          "internalType": "string",
          "name": "_username",
          "type": "string"
        },
        {
          "internalType": "string",
          "name": "_metadataURI",
          "type": "string"
        }
      ],
      "name": "createProfile",
      "outputs": [
        {
          "internalType": "uint256",
          "name": "",
          "type": "uint256"
        }
      ],
      "stateMutability": "nonpayable",
      "type": "function"
    },
    {
      "inputs": [
        {
          "internalType": "address",
          "name": "_user",
          "type": "address"
        }
      ],
      "name": "getProfile",
      "outputs": [
        {
          "components": [
            {
              "internalType": "string",
              "name": "username",
              "type": "string"
            },
            {
              "internalType": "address",
              "name": "walletAddress",
              "type": "address"
            },
            {
              "internalType": "uint256",
              "name": "joinTimestamp",
              "type": "uint256"
            },
            {
              "internalType": "uint256",
              "name": "xp",
              "type": "uint256"
            },
            {
              "internalType": "uint256",
              "name": "level",
              "type": "uint256"
            },
            {
              "internalType": "uint256",
              "name": "brainScore",
              "type": "uint256"
            },
            {
              "internalType": "string",
              "name": "metadataURI",
              "type": "string"
            },
            {
              "internalType": "bool",
              "name": "exists",
              "type": "bool"
            }
          ],
          "internalType": "struct BrainRegistry.Profile",
          "name": "",
          "type": "tuple"
        }
      ],
      "stateMutability": "view",
      "type": "function"
    },
    {
      "inputs": [
        {
          "internalType": "address",
          "name": "",
          "type": "address"
        },
        {
          "internalType": "uint256",
          "name": "",
          "type": "uint256"
        }
      ],
      "name": "hasMilestoneBadge",
      "outputs": [
        {
          "internalType": "bool",
          "name": "",
          "type": "bool"
        }
      ],
      "stateMutability": "view",
      "type": "function"
    },
    {
      "inputs": [
        {
          "internalType": "address",
          "name": "_pass",
          "type": "address"
        },
        {
          "internalType": "address",
          "name": "_badge",
          "type": "address"
        }
      ],
      "name": "linkContracts",
      "outputs": [],
      "stateMutability": "nonpayable",
      "type": "function"
    },
    {
      "inputs": [],
      "name": "owner",
      "outputs": [
        {
          "internalType": "address",
          "name": "",
          "type": "address"
        }
      ],
      "stateMutability": "view",
      "type": "function"
    },
    {
      "inputs": [],
      "name": "pendingOwner",
      "outputs": [
        {
          "internalType": "address",
          "name": "",
          "type": "address"
        }
      ],
      "stateMutability": "view",
      "type": "function"
    },
    {
      "inputs": [],
      "name": "renounceOwnership",
      "outputs": [],
      "stateMutability": "nonpayable",
      "type": "function"
    },
    {
      "inputs": [
        {
          "internalType": "address",
          "name": "_contract",
          "type": "address"
        },
        {
          "internalType": "bool",
          "name": "_status",
          "type": "bool"
        }
      ],
      "name": "setAuthorizedContract",
      "outputs": [],
      "stateMutability": "nonpayable",
      "type": "function"
    },
    {
      "inputs": [
        {
          "internalType": "address",
          "name": "newOwner",
          "type": "address"
        }
      ],
      "name": "transferOwnership",
      "outputs": [],
      "stateMutability": "nonpayable",
      "type": "function"
    },
    {
      "inputs": [
        {
          "internalType": "address",
          "name": "_user",
          "type": "address"
        },
        {
          "internalType": "uint256",
          "name": "_score",
          "type": "uint256"
        }
      ],
      "name": "updateBrainScore",
      "outputs": [],
      "stateMutability": "nonpayable",
      "type": "function"
    },
    {
      "inputs": [
        {
          "internalType": "string",
          "name": "_username",
          "type": "string"
        },
        {
          "internalType": "string",
          "name": "_metadataURI",
          "type": "string"
        }
      ],
      "name": "updateProfile",
      "outputs": [],
      "stateMutability": "nonpayable",
      "type": "function"
    },
    {
      "inputs": [],
      "name": "xpBadgeAddress",
      "outputs": [
        {
          "internalType": "address",
          "name": "",
          "type": "address"
        }
      ],
      "stateMutability": "view",
      "type": "function"
    }
  ],
  "bytecode": "0x608060405234801561000f575f80fd5b50338061003557604051631e4fbdf760e01b81525f600482015260240160405180910390fd5b61003e81610068565b5060017f9b779b17422d0df92223018b32b4d1fa46e071723d6817e2486d003becc55f00556100d3565b600180546001600160a01b031916905561008181610084565b50565b5f80546001600160a01b038381166001600160a01b0319831681178455604051919092169283917f8be0079c531659141344cd1fd0a4f28419497f9722a3daafe3b4186f6b6457e09190a35050565b611679806100e05f395ff3fe608060405234801561000f575f80fd5b50600436106100fb575f3560e01c8063a40ade0a11610093578063d5b9221b11610063578063d5b9221b14610232578063e30c397814610254578063f2fa739214610265578063f2fde38b14610278575f80fd5b8063a40ade0a146101d8578063ba1feb8a146101eb578063c9d3cc6a1461020c578063d36b772a1461021f575f80fd5b8063401b9f49116100ce578063401b9f491461018d578063715018a6146101b857806379ba5097146101c05780638da5cb5b146101c8575f80fd5b80630f53a470146100ff578063316f8b04146101285780633c3c53ed1461013d5780633dc9abfa1461017a575b5f80fd5b61011261010d3660046110d8565b61028b565b60405161011f919061113b565b60405180910390f35b61013b6101363660046111cf565b6104ab565b005b61016a61014b3660046111cf565b600660209081525f928352604080842090915290825290205460ff1681565b604051901515815260200161011f565b61013b6101883660046111f7565b6105c8565b6002546101a0906001600160a01b031681565b6040516001600160a01b03909116815260200161011f565b61013b610679565b61013b61068c565b5f546001600160a01b03166101a0565b61013b6101e63660046111cf565b6106d5565b6101fe6101f936600461126d565b610866565b60405190815260200161011f565b61013b61021a36600461126d565b610b04565b6003546101a0906001600160a01b031681565b61016a6102403660046110d8565b60056020525f908152604090205460ff1681565b6001546001600160a01b03166101a0565b61013b6102733660046112d4565b610bd1565b61013b6102863660046110d8565b610c5e565b6102d8604051806101000160405280606081526020015f6001600160a01b031681526020015f81526020015f81526020015f81526020015f8152602001606081526020015f151581525090565b6001600160a01b0382165f9081526004602052604090206007015460ff1661031357604051635a05a1b160e01b815260040160405180910390fd5b6001600160a01b0382165f9081526004602052604090819020815161010081019092528054829082906103459061130d565b80601f01602080910402602001604051908101604052809291908181526020018280546103719061130d565b80156103bc5780601f10610393576101008083540402835291602001916103bc565b820191905f5260205f20905b81548152906001019060200180831161039f57829003601f168201915b505050918352505060018201546001600160a01b03166020820152600282015460408201526003820154606082015260048201546080820152600582015460a082015260068201805460c0909201916104149061130d565b80601f01602080910402602001604051908101604052809291908181526020018280546104409061130d565b801561048b5780601f106104625761010080835404028352916020019161048b565b820191905f5260205f20905b81548152906001019060200180831161046e57829003601f168201915b50505091835250506007919091015460ff16151560209091015292915050565b6001600160a01b0382165f90815260046020526040902060070154829060ff166104e857604051635a05a1b160e01b815260040160405180910390fd5b336001600160a01b0384161480159061050b57505f546001600160a01b03163314155b80156105265750335f9081526005602052604090205460ff16155b156105445760405163ea8e4eb560e01b815260040160405180910390fd5b60648211156105665760405163cd1220fb60e01b815260040160405180910390fd5b6001600160a01b0383165f81815260046020908152604091829020600501805490869055825181815291820186905292917fea4277b86dd7eef18f6b87b079403796815085e87a145bafd53d7f74fe372ef7910160405180910390a250505050565b6105d0610cce565b6001600160a01b03821615806105ed57506001600160a01b038116155b1561060b5760405163e6c4247b60e01b815260040160405180910390fd5b600280546001600160a01b038481166001600160a01b03199283168117909355600380549185169190921681179091556040805192835260208301919091527f0d5f5c5aaeae9c54df1d8d38f1d3425e7eb79bb42be6608efecc1fbed97bf002910160405180910390a15050565b610681610cce565b61068a5f610cfa565b565b60015433906001600160a01b031681146106c95760405163118cdaa760e01b81526001600160a01b03821660048201526024015b60405180910390fd5b6106d281610cfa565b50565b5f546001600160a01b031633148015906106fe5750335f9081526005602052604090205460ff16155b1561071c5760405163ea8e4eb560e01b815260040160405180910390fd5b6001600160a01b0382165f90815260046020526040902060070154829060ff1661075957604051635a05a1b160e01b815260040160405180910390fd5b610761610d13565b815f0361078157604051631ee895b760e31b815260040160405180910390fd5b6001600160a01b0383165f908152600460205260408120600381018054919285926107ad908490611345565b909155505060038101545f906107c6906103e89061136a565b6107d1906001611345565b905081600401548111156107e757600482018190555b600382015460048301546040805187815260208101939093528201526001600160a01b038616907fb78ffc24376e62639525bbe511964508847544fe064134c5c4dc2282722c6e879060600160405180910390a2610849858360030154610d2e565b505061086160015f8051602061162483398151915255565b505050565b5f61086f610d13565b6002546001600160a01b0316610898576040516367e2f56b60e11b815260040160405180910390fd5b335f9081526004602052604090206007015460ff16156108cb576040516337450d8560e11b815260040160405180910390fd5b5f8490036108ec57604051630b68b9bb60e11b815260040160405180910390fd5b60405180610100016040528086868080601f0160208091040260200160405190810160405280939291908181526020018383808284375f92018290525093855250503360208085019190915242604080860191909152606085018490526001608086015260a08501939093528251601f880182900482028101820190935286835260c0909301928791508690819084018382808284375f9201829052509385525050600160209384015250338152600490915260409020815181906109b190826113e8565b5060208201516001820180546001600160a01b0319166001600160a01b0390921691909117905560408201516002820155606082015160038201556080820151600482015560a0820151600582015560c08201516006820190610a1490826113e8565b5060e091909101516007909101805460ff191691151591909117905560025460405163739cb1c160e11b81523360048201525f916001600160a01b03169063e7396382906024016020604051808303815f875af1158015610a77573d5f803e3d5ffd5b505050506040513d601f19601f82011682018060405250810190610a9b91906114a4565b9050336001600160a01b03167f99c4fe6a82298d2913c54135db1c01c66667d5c0941d60ed46b1ebd0067fede187874285604051610adc94939291906114e3565b60405180910390a29050610afc60015f8051602061162483398151915255565b949350505050565b335f8181526004602052604090206007015460ff16610b3657604051635a05a1b160e01b815260040160405180910390fd5b5f849003610b5757604051630b68b9bb60e11b815260040160405180910390fd5b335f90815260046020526040902080610b71868883611509565b5060068101610b81848683611509565b50336001600160a01b03167f6eb3a1c6a4675ba92d44e090515b1ceea358f26565d2854df0c99c3f5eaf985087878787604051610bc194939291906115c3565b60405180910390a2505050505050565b610bd9610cce565b6001600160a01b038216610c005760405163e6c4247b60e01b815260040160405180910390fd5b6001600160a01b0382165f81815260056020908152604091829020805460ff191685151590811790915591519182527f2c59b8f31260880424e870332281eba93ddfef67e37d699cebe5a7ba89f7a8a6910160405180910390a25050565b610c66610cce565b600180546001600160a01b0383166001600160a01b03199091168117909155610c965f546001600160a01b031690565b6001600160a01b03167f38d16b8cac22d99fc7c124b9cd0de2d3fa1faef420bfe791d8c362d765e2270060405160405180910390a350565b5f546001600160a01b0316331461068a5760405163118cdaa760e01b81523360048201526024016106c0565b600180546001600160a01b03191690556106d28161103f565b610d1b61108e565b60025f8051602061162483398151915255565b6003546001600160a01b0316610d42575050565b6103e88110158015610d7857506001600160a01b0382165f9081526006602090815260408083206001845290915290205460ff16155b15610e3f576001600160a01b0382165f818152600660209081526040808320600180855290835292819020805460ff191684179055519182527fd263113b5849023b599671f25dd1f32814beb3ac9067e26df5b1e41a003b7f23910160405180910390a2600354604051635f5c08cb60e01b81526001600160a01b0390911690635f5c08cb90610e1190859060019081906004016115f4565b5f604051808303815f87803b158015610e28575f80fd5b505af1158015610e3a573d5f803e3d5ffd5b505050505b6113888110158015610e7557506001600160a01b0382165f9081526006602090815260408083206002845290915290205460ff16155b15610f3e576001600160a01b0382165f818152600660209081526040808320600280855290835292819020805460ff19166001179055519182527fd263113b5849023b599671f25dd1f32814beb3ac9067e26df5b1e41a003b7f23910160405180910390a2600354604051635f5c08cb60e01b81526001600160a01b0390911690635f5c08cb90610f109085906002906001906004016115f4565b5f604051808303815f87803b158015610f27575f80fd5b505af1158015610f39573d5f803e3d5ffd5b505050505b6127108110158015610f7457506001600160a01b0382165f9081526006602090815260408083206003845290915290205460ff16155b1561103b576001600160a01b0382165f818152600660209081526040808320600380855290835292819020805460ff19166001179055519182527fd263113b5849023b599671f25dd1f32814beb3ac9067e26df5b1e41a003b7f23910160405180910390a260038054604051635f5c08cb60e01b81526001600160a01b0390911691635f5c08cb9161100d9186916001906004016115f4565b5f604051808303815f87803b158015611024575f80fd5b505af1158015611036573d5f803e3d5ffd5b505050505b5050565b5f80546001600160a01b038381166001600160a01b0319831681178455604051919092169283917f8be0079c531659141344cd1fd0a4f28419497f9722a3daafe3b4186f6b6457e09190a35050565b5f805160206116248339815191525460020361068a57604051633ee5aeb560e01b815260040160405180910390fd5b80356001600160a01b03811681146110d3575f80fd5b919050565b5f602082840312156110e8575f80fd5b6110f1826110bd565b9392505050565b5f81518084525f5b8181101561111c57602081850181015186830182015201611100565b505f602082860101526020601f19601f83011685010191505092915050565b602081525f82516101008060208501526111596101208501836110f8565b915060018060a01b0360208601511660408501526040850151606085015260608501516080850152608085015160a085015260a085015160c085015260c0850151601f198584030160e08601526111b083826110f8565b92505060e08501516111c58286018215159052565b5090949350505050565b5f80604083850312156111e0575f80fd5b6111e9836110bd565b946020939093013593505050565b5f8060408385031215611208575f80fd5b611211836110bd565b915061121f602084016110bd565b90509250929050565b5f8083601f840112611238575f80fd5b50813567ffffffffffffffff81111561124f575f80fd5b602083019150836020828501011115611266575f80fd5b9250929050565b5f805f8060408587031215611280575f80fd5b843567ffffffffffffffff80821115611297575f80fd5b6112a388838901611228565b909650945060208701359150808211156112bb575f80fd5b506112c887828801611228565b95989497509550505050565b5f80604083850312156112e5575f80fd5b6112ee836110bd565b915060208301358015158114611302575f80fd5b809150509250929050565b600181811c9082168061132157607f821691505b60208210810361133f57634e487b7160e01b5f52602260045260245ffd5b50919050565b8082018082111561136457634e487b7160e01b5f52601160045260245ffd5b92915050565b5f8261138457634e487b7160e01b5f52601260045260245ffd5b500490565b634e487b7160e01b5f52604160045260245ffd5b601f82111561086157805f5260205f20601f840160051c810160208510156113c25750805b601f840160051c820191505b818110156113e1575f81556001016113ce565b5050505050565b815167ffffffffffffffff81111561140257611402611389565b61141681611410845461130d565b8461139d565b602080601f831160018114611449575f84156114325750858301515b5f19600386901b1c1916600185901b178555611036565b5f85815260208120601f198616915b8281101561147757888601518255948401946001909101908401611458565b508582101561149457878501515f19600388901b60f8161c191681555b5050505050600190811b01905550565b5f602082840312156114b4575f80fd5b5051919050565b81835281816020850137505f828201602090810191909152601f909101601f19169091010190565b606081525f6114f66060830186886114bb565b6020830194909452506040015292915050565b67ffffffffffffffff83111561152157611521611389565b6115358361152f835461130d565b8361139d565b5f601f841160018114611566575f851561154f5750838201355b5f19600387901b1c1916600186901b1783556113e1565b5f83815260208120601f198716915b828110156115955786850135825560209485019460019092019101611575565b50868210156115b1575f1960f88860031b161c19848701351681555b505060018560011b0183555050505050565b604081525f6115d66040830186886114bb565b82810360208401526115e98185876114bb565b979650505050505050565b6001600160a01b03939093168352602083019190915260408201526080606082018190525f9082015260a0019056fe9b779b17422d0df92223018b32b4d1fa46e071723d6817e2486d003becc55f00a26469706673582212203018364941630efb0693079cc59230bd3bf9cd63929aa8d7561b4a8a6681b3f064736f6c63430008180033",
  "linkReferences": {},
  "deployedLinkReferences": {}
}