{
  "_format": "hh-sol-artifact-1",
  "contractName": "BrainPassNFT",
  "sourceName": "contracts/BrainPassNFT.sol",
  "abi": [
    {
      "inputs": [
        {
          "internalType": "address",
          "name": "_registryAddress",
          "type": "address"
        }
      ],
      "stateMutability": "nonpayable",
      "type": "constructor"
    },
    {
      "inputs": [],
      "name": "DuplicateMinting",
      "type": "error"
    },
    {
      "inputs": [
        {
          "internalType": "address",
          "name": "sender",
          "type": "address"
        },
        {
          "internalType": "uint256",
          "name": "tokenId",
          "type": "uint256"
        },
        {
          "internalType": "address",
          "name": "owner",
          "type": "address"
        }
      ],
      "name": "ERC721IncorrectOwner",
      "type": "error"
    },
    {
      "inputs": [
        {
          "internalType": "address",
          "name": "operator",
          "type": "address"
        },
        {
          "internalType": "uint256",
          "name": "tokenId",
          "type": "uint256"
        }
      ],
      "name": "ERC721InsufficientApproval",
      "type": "error"
    },
    {
      "inputs": [
        {
          "internalType": "address",
          "name": "approver",
          "type": "address"
        }
      ],
      "name": "ERC721InvalidApprover",
      "type": "error"
    },
    {
      "inputs": [
        {
          "internalType": "address",
          "name": "operator",
          "type": "address"
        }
      ],
      "name": "ERC721InvalidOperator",
      "type": "error"
    },
    {
      "inputs": [
        {
          "internalType": "address",
          "name": "owner",
          "type": "address"
        }
      ],
      "name": "ERC721InvalidOwner",
      "type": "error"
    },
    {
      "inputs": [
        {
          "internalType": "address",
          "name": "receiver",
          "type": "address"
        }
      ],
      "name": "ERC721InvalidReceiver",
      "type": "error"
    },
    {
      "inputs": [
        {
          "internalType": "address",
          "name": "sender",
          "type": "address"
        }
      ],
      "name": "ERC721InvalidSender",
      "type": "error"
    },
    {
      "inputs": [
        {
          "internalType": "uint256",
          "name": "tokenId",
          "type": "uint256"
        }
      ],
      "name": "ERC721NonexistentToken",
      "type": "error"
    },
    {
      "inputs": [],
      "name": "InvalidAddress",
      "type": "error"
    },
    {
      "inputs": [],
      "name": "OnlyRegistry",
      "type": "error"
    },
    {
      "inputs": [
        {
          "internalType": "address",
          "name": "owner",
          "type": "address"
        }
      ],
      "name": "OwnableInvalidOwner",
      "type": "error"
    },
    {
      "inputs": [
        {
          "internalType": "address",
          "name": "account",
          "type": "address"
        }
      ],
      "name": "OwnableUnauthorizedAccount",
      "type": "error"
    },
    {
      "inputs": [],
      "name": "TokenDoesNotExist",
      "type": "error"
    },
    {
      "anonymous": false,
      "inputs": [
        {
          "indexed": true,
          "internalType": "address",
          "name": "owner",
          "type": "address"
        },
        {
          "indexed": true,
          "internalType": "address",
          "name": "approved",
          "type": "address"
        },
        {
          "indexed": true,
          "internalType": "uint256",
          "name": "tokenId",
          "type": "uint256"
        }
      ],
      "name": "Approval",
      "type": "event"
    },
    {
      "anonymous": false,
      "inputs": [
        {
          "indexed": true,
          "internalType": "address",
          "name": "owner",
          "type": "address"
        },
        {
          "indexed": true,
          "internalType": "address",
          "name": "operator",
          "type": "address"
        },
        {
          "indexed": false,
          "internalType": "bool",
          "name": "approved",
          "type": "bool"
        }
      ],
      "name": "ApprovalForAll",
      "type": "event"
    },
    {
      "anonymous": false,
      "inputs": [
        {
          "indexed": true,
          "internalType": "address",
          "name": "previousOwner",
          "type": "address"
        },
        {
          "indexed": true,
          "internalType": "address",
          "name": "newOwner",
          "type": "address"
        }
      ],
      "name": "OwnershipTransferred",
      "type": "event"
    },
    {
      "anonymous": false,
      "inputs": [
        {
          "indexed": true,
          "internalType": "address",
          "name": "user",
          "type": "address"
        },
        {
          "indexed": true,
          "internalType": "uint256",
          "name": "tokenId",
          "type": "uint256"
        }
      ],
      "name": "PassMinted",
      "type": "event"
    },
    {
      "anonymous": false,
      "inputs": [
        {
          "indexed": true,
          "internalType": "address",
          "name": "newRegistry",
          "type": "address"
        }
      ],
      "name": "RegistryAddressUpdated",
      "type": "event"
    },
    {
      "anonymous": false,
      "inputs": [
        {
          "indexed": true,
          "internalType": "address",
          "name": "from",
          "type": "address"
        },
        {
          "indexed": true,
          "internalType": "address",
          "name": "to",
          "type": "address"
        },
        {
          "indexed": true,
          "internalType": "uint256",
          "name": "tokenId",
          "type": "uint256"
        }
      ],
      "name": "Transfer",
      "type": "event"
    },
    {
      "inputs": [
        {
          "internalType": "address",
          "name": "to",
          "type": "address"
        },
        {
          "internalType": "uint256",
          "name": "tokenId",
          "type": "uint256"
        }
      ],
      "name": "approve",
      "outputs": [],
      "stateMutability": "nonpayable",
      "type": "function"
    },
    {
      "inputs": [
        {
          "internalType": "address",
          "name": "owner",
          "type": "address"
        }
      ],
      "name": "balanceOf",
      "outputs": [
        {
          "internalType": "uint256",
          "name": "",
          "type": "uint256"
        }
      ],
      "stateMutability": "view",
      "type": "function"
    },
    {
      "inputs": [
        {
          "internalType": "uint256",
          "name": "tokenId",
          "type": "uint256"
        }
      ],
      "name": "getApproved",
      "outputs": [
        {
          "internalType": "address",
          "name": "",
          "type": "address"
        }
      ],
      "stateMutability": "view",
      "type": "function"
    },
    {
      "inputs": [],
      "name": "getNextTokenId",
      "outputs": [
        {
          "internalType": "uint256",
          "name": "",
          "type": "uint256"
        }
      ],
      "stateMutability": "view",
      "type": "function"
    },
    {
      "inputs": [
        {
          "internalType": "address",
          "name": "owner",
          "type": "address"
        },
        {
          "internalType": "address",
          "name": "operator",
          "type": "address"
        }
      ],
      "name": "isApprovedForAll",
      "outputs": [
        {
          "internalType": "bool",
          "name": "",
          "type": "bool"
        }
      ],
      "stateMutability": "view",
      "type": "function"
    },
    {
      "inputs": [
        {
          "internalType": "address",
          "name": "_user",
          "type": "address"
        }
      ],
      "name": "mintPass",
      "outputs": [
        {
          "internalType": "uint256",
          "name": "",
          "type": "uint256"
        }
      ],
      "stateMutability": "nonpayable",
      "type": "function"
    },
    {
      "inputs": [],
      "name": "name",
      "outputs": [
        {
          "internalType": "string",
          "name": "",
          "type": "string"
        }
      ],
      "stateMutability": "view",
      "type": "function"
    },
    {
      "inputs": [],
      "name": "owner",
      "outputs": [
        {
          "internalType": "address",
          "name": "",
          "type": "address"
        }
      ],
      "stateMutability": "view",
      "type": "function"
    },
    {
      "inputs": [
        {
          "internalType": "uint256",
          "name": "tokenId",
          "type": "uint256"
        }
      ],
      "name": "ownerOf",
      "outputs": [
        {
          "internalType": "address",
          "name": "",
          "type": "address"
        }
      ],
      "stateMutability": "view",
      "type": "function"
    },
    {
      "inputs": [],
      "name": "registryAddress",
      "outputs": [
        {
          "internalType": "address",
          "name": "",
          "type": "address"
        }
      ],
      "stateMutability": "view",
      "type": "function"
    },
    {
      "inputs": [],
      "name": "renounceOwnership",
      "outputs": [],
      "stateMutability": "nonpayable",
      "type": "function"
    },
    {
      "inputs": [
        {
          "internalType": "address",
          "name": "from",
          "type": "address"
        },
        {
          "internalType": "address",
          "name": "to",
          "type": "address"
        },
        {
          "internalType": "uint256",
          "name": "tokenId",
          "type": "uint256"
        }
      ],
      "name": "safeTransferFrom",
      "outputs": [],
      "stateMutability": "nonpayable",
      "type": "function"
    },
    {
      "inputs": [
        {
          "internalType": "address",
          "name": "from",
          "type": "address"
        },
        {
          "internalType": "address",
          "name": "to",
          "type": "address"
        },
        {
          "internalType": "uint256",
          "name": "tokenId",
          "type": "uint256"
        },
        {
          "internalType": "bytes",
          "name": "data",
          "type": "bytes"
        }
      ],
      "name": "safeTransferFrom",
      "outputs": [],
      "stateMutability": "nonpayable",
      "type": "function"
    },
    {
      "inputs": [
        {
          "internalType": "address",
          "name": "operator",
          "type": "address"
        },
        {
          "internalType": "bool",
          "name": "approved",
          "type": "bool"
        }
      ],
      "name": "setApprovalForAll",
      "outputs": [],
      "stateMutability": "nonpayable",
      "type": "function"
    },
    {
      "inputs": [
        {
          "internalType": "address",
          "name": "_newRegistry",
          "type": "address"
        }
      ],
      "name": "setRegistryAddress",
      "outputs": [],
      "stateMutability": "nonpayable",
      "type": "function"
    },
    {
      "inputs": [
        {
          "internalType": "bytes4",
          "name": "interfaceId",
          "type": "bytes4"
        }
      ],
      "name": "supportsInterface",
      "outputs": [
        {
          "internalType": "bool",
          "name": "",
          "type": "bool"
        }
      ],
      "stateMutability": "view",
      "type": "function"
    },
    {
      "inputs": [],
      "name": "symbol",
      "outputs": [
        {
          "internalType": "string",
          "name": "",
          "type": "string"
        }
      ],
      "stateMutability": "view",
      "type": "function"
    },
    {
      "inputs": [
        {
          "internalType": "uint256",
          "name": "tokenId",
          "type": "uint256"
        }
      ],
      "name": "tokenURI",
      "outputs": [
        {
          "internalType": "string",
          "name": "",
          "type": "string"
        }
      ],
      "stateMutability": "view",
      "type": "function"
    },
    {
      "inputs": [
        {
          "internalType": "address",
          "name": "from",
          "type": "address"
        },
        {
          "internalType": "address",
          "name": "to",
          "type": "address"
        },
        {
          "internalType": "uint256",
          "name": "tokenId",
          "type": "uint256"
        }
      ],
      "name": "transferFrom",
      "outputs": [],
      "stateMutability": "nonpayable",
      "type": "function"
    },
    {
      "inputs": [
        {
          "internalType": "address",
          "name": "newOwner",
          "type": "address"
        }
      ],
      "name": "transferOwnership",
      "outputs": [],
      "stateMutability": "nonpayable",
      "type": "function"
    },
    {
      "inputs": [
        {
          "internalType": "address",
          "name": "",
          "type": "address"
        }
      ],
      "name": "userPassId",
      "outputs": [
        {
          "internalType": "uint256",
          "name": "",
          "type": "uint256"
        }
      ],
      "stateMutability": "view",
      "type": "function"
    }
  ],
  "bytecode": "0x608060405234801562000010575f80fd5b50604051620015d6380380620015d683398101604081905262000033916200017d565b336040518060400160405280601181526020017052697475616c20427261696e205061737360781b8152506040518060400160405280600681526020016552425041535360d01b815250815f90816200008d91906200024a565b5060016200009c82826200024a565b5050506001600160a01b038116620000cd57604051631e4fbdf760e01b81525f600482015260240160405180910390fd5b620000d8816200012c565b506001600160a01b038116620001015760405163e6c4247b60e01b815260040160405180910390fd5b600780546001600160a01b0319166001600160a01b0392909216919091179055600160085562000316565b600680546001600160a01b038381166001600160a01b0319831681179093556040519116919082907f8be0079c531659141344cd1fd0a4f28419497f9722a3daafe3b4186f6b6457e0905f90a35050565b5f602082840312156200018e575f80fd5b81516001600160a01b0381168114620001a5575f80fd5b9392505050565b634e487b7160e01b5f52604160045260245ffd5b600181811c90821680620001d557607f821691505b602082108103620001f457634e487b7160e01b5f52602260045260245ffd5b50919050565b601f8211156200024557805f5260205f20601f840160051c81016020851015620002215750805b601f840160051c820191505b8181101562000242575f81556001016200022d565b50505b505050565b81516001600160401b03811115620002665762000266620001ac565b6200027e81620002778454620001c0565b84620001fa565b602080601f831160018114620002b4575f84156200029c5750858301515b5f19600386901b1c1916600185901b1785556200030e565b5f85815260208120601f198616915b82811015620002e457888601518255948401946001909101908401620002c3565b50858210156200030257878501515f19600388901b60f8161c191681555b505060018460011b0185555b505050505050565b6112b280620003245f395ff3fe608060405234801561000f575f80fd5b5060043610610132575f3560e01c80638da5cb5b116100b4578063c87b56dd11610079578063c87b56dd14610286578063caa0f92a14610299578063e7396382146102a1578063e985e9c5146102b4578063ed9aab51146102c7578063f2fde38b146102da575f80fd5b80638da5cb5b1461023457806395d89b4114610245578063a22cb4651461024d578063ab7b499314610260578063b88d4fde14610273575f80fd5b806342842e0e116100fa57806342842e0e146101c65780636352211e146101d957806370a08231146101ec578063715018a61461020d5780638032bcd814610215575f80fd5b806301ffc9a71461013657806306fdde031461015e578063081812fc14610173578063095ea7b31461019e57806323b872dd146101b3575b5f80fd5b610149610144366004610dbe565b6102ed565b60405190151581526020015b60405180910390f35b61016661033e565b6040516101559190610e2d565b610186610181366004610e3f565b6103cd565b6040516001600160a01b039091168152602001610155565b6101b16101ac366004610e6a565b6103f4565b005b6101b16101c1366004610e94565b610403565b6101b16101d4366004610e94565b610491565b6101866101e7366004610e3f565b6104b0565b6101ff6101fa366004610ed2565b6104ba565b604051908152602001610155565b6101b16104ff565b6101ff610223366004610ed2565b60096020525f908152604090205481565b6006546001600160a01b0316610186565b610166610512565b6101b161025b366004610efa565b610521565b6101b161026e366004610ed2565b61052c565b6101b1610281366004610fc7565b6105a4565b610166610294366004610e3f565b6105bc565b6008546101ff565b6101ff6102af366004610ed2565b610650565b6101496102c236600461106f565b61073e565b600754610186906001600160a01b031681565b6101b16102e8366004610ed2565b61076b565b5f6001600160e01b031982166380ac58cd60e01b148061031d57506001600160e01b03198216635b5e139f60e01b145b8061033857506301ffc9a760e01b6001600160e01b03198316145b92915050565b60605f805461034c9061109b565b80601f01602080910402602001604051908101604052809291908181526020018280546103789061109b565b80156103c35780601f1061039a576101008083540402835291602001916103c3565b820191905f5260205f20905b8154815290600101906020018083116103a657829003601f168201915b5050505050905090565b5f6103d7826107a8565b505f828152600460205260409020546001600160a01b0316610338565b6103ff8282336107e0565b5050565b6001600160a01b03821661043157604051633250574960e11b81525f60048201526024015b60405180910390fd5b5f61043d8383336107ed565b9050836001600160a01b0316816001600160a01b03161461048b576040516364283d7b60e01b81526001600160a01b0380861660048301526024820184905282166044820152606401610428565b50505050565b6104ab83838360405180602001604052805f8152506105a4565b505050565b5f610338826107a8565b5f6001600160a01b0382166104e4576040516322718ad960e21b81525f6004820152602401610428565b506001600160a01b03165f9081526003602052604090205490565b6105076108df565b6105105f61090c565b565b60606001805461034c9061109b565b6103ff33838361095d565b6105346108df565b6001600160a01b03811661055b5760405163e6c4247b60e01b815260040160405180910390fd5b600780546001600160a01b0319166001600160a01b0383169081179091556040517fc533a624c353ec88e315b162298e52e2b02aa03d5fb5afdbf13445a26f1d10c7905f90a250565b6105af848484610403565b61048b3385858585610a24565b60606105c7826107a8565b505f6105d2836104b0565b60075460405162f53a4760e41b81526001600160a01b0380841660048301529293505f9290911690630f53a470906024015f60405180830381865afa15801561061d573d5f803e3d5ffd5b505050506040513d5f823e601f3d908101601f19168201604052610644919081019061112b565b60c00151949350505050565b6007545f906001600160a01b0316331461067d576040516310f5403960e31b815260040160405180910390fd5b5f610687836104ba565b11806106a957506001600160a01b0382165f9081526009602052604090205415155b156106c757604051631f87d4bd60e11b815260040160405180910390fd5b600880549081905f6106d883611201565b90915550506001600160a01b0383165f9081526009602052604090208190556107018382610b4c565b60405181906001600160a01b038516907f35366f116e63e323da291fbd01cfcd53069179726cdc03edbd7f8ae1cf86a7f2905f90a390505b919050565b6001600160a01b039182165f90815260056020908152604080832093909416825291909152205460ff1690565b6107736108df565b6001600160a01b03811661079c57604051631e4fbdf760e01b81525f6004820152602401610428565b6107a58161090c565b50565b5f818152600260205260408120546001600160a01b03168061033857604051637e27328960e01b815260048101849052602401610428565b6104ab8383836001610b65565b5f828152600260205260408120546001600160a01b039081169083161561081957610819818486610c69565b6001600160a01b03811615610853576108345f855f80610b65565b6001600160a01b0381165f90815260036020526040902080545f190190555b6001600160a01b03851615610881576001600160a01b0385165f908152600360205260409020805460010190555b5f8481526002602052604080822080546001600160a01b0319166001600160a01b0389811691821790925591518793918516917fddf252ad1be2c89b69c2b068fc378daa952ba7f163c4a11628f55a4df523b3ef91a4949350505050565b6006546001600160a01b031633146105105760405163118cdaa760e01b8152336004820152602401610428565b600680546001600160a01b038381166001600160a01b0319831681179093556040519116919082907f8be0079c531659141344cd1fd0a4f28419497f9722a3daafe3b4186f6b6457e0905f90a35050565b6001600160a01b0383166109865760405163a9fbf51f60e01b81525f6004820152602401610428565b6001600160a01b0382166109b857604051630b61174360e31b81526001600160a01b0383166004820152602401610428565b6001600160a01b038381165f81815260056020908152604080832094871680845294825291829020805460ff191686151590811790915591519182527f17307eab39ab6107e8899845ad3d59bd9653f200f220920489ca2b5937696c31910160405180910390a3505050565b6001600160a01b0383163b15610b4557604051630a85bd0160e11b81526001600160a01b0384169063150b7a0290610a66908890889087908790600401611225565b6020604051808303815f875af1925050508015610aa0575060408051601f3d908101601f19168201909252610a9d91810190611261565b60015b610b07573d808015610acd576040519150601f19603f3d011682016040523d82523d5f602084013e610ad2565b606091505b5080515f03610aff57604051633250574960e11b81526001600160a01b0385166004820152602401610428565b805160208201fd5b6001600160e01b03198116630a85bd0160e11b14610b4357604051633250574960e11b81526001600160a01b0385166004820152602401610428565b505b5050505050565b6103ff828260405180602001604052805f815250610ccd565b8080610b7957506001600160a01b03821615155b15610c3a575f610b88846107a8565b90506001600160a01b03831615801590610bb45750826001600160a01b0316816001600160a01b031614155b8015610bc75750610bc5818461073e565b155b15610bf05760405163a9fbf51f60e01b81526001600160a01b0384166004820152602401610428565b8115610c385783856001600160a01b0316826001600160a01b03167f8c5be1e5ebec7d5bd14f71427d1e84f3dd0314c0f7b2291e5b200ac8c7c3b92560405160405180910390a45b505b50505f90815260046020526040902080546001600160a01b0319166001600160a01b0392909216919091179055565b610c74838383610ce4565b6104ab576001600160a01b038316610ca257604051637e27328960e01b815260048101829052602401610428565b60405163177e802f60e01b81526001600160a01b038316600482015260248101829052604401610428565b610cd78383610d48565b6104ab335f858585610a24565b5f6001600160a01b03831615801590610d405750826001600160a01b0316846001600160a01b03161480610d1d5750610d1d848461073e565b80610d4057505f828152600460205260409020546001600160a01b038481169116145b949350505050565b6001600160a01b038216610d7157604051633250574960e11b81525f6004820152602401610428565b5f610d7d83835f6107ed565b90506001600160a01b038116156104ab576040516339e3563760e11b81525f6004820152602401610428565b6001600160e01b0319811681146107a5575f80fd5b5f60208284031215610dce575f80fd5b8135610dd981610da9565b9392505050565b5f5b83811015610dfa578181015183820152602001610de2565b50505f910152565b5f8151808452610e19816020860160208601610de0565b601f01601f19169290920160200192915050565b602081525f610dd96020830184610e02565b5f60208284031215610e4f575f80fd5b5035919050565b6001600160a01b03811681146107a5575f80fd5b5f8060408385031215610e7b575f80fd5b8235610e8681610e56565b946020939093013593505050565b5f805f60608486031215610ea6575f80fd5b8335610eb181610e56565b92506020840135610ec181610e56565b929592945050506040919091013590565b5f60208284031215610ee2575f80fd5b8135610dd981610e56565b80151581146107a5575f80fd5b5f8060408385031215610f0b575f80fd5b8235610f1681610e56565b91506020830135610f2681610eed565b809150509250929050565b634e487b7160e01b5f52604160045260245ffd5b604051610100810167ffffffffffffffff81118282101715610f6957610f69610f31565b60405290565b604051601f8201601f1916810167ffffffffffffffff81118282101715610f9857610f98610f31565b604052919050565b5f67ffffffffffffffff821115610fb957610fb9610f31565b50601f01601f191660200190565b5f805f8060808587031215610fda575f80fd5b8435610fe581610e56565b93506020850135610ff581610e56565b925060408501359150606085013567ffffffffffffffff811115611017575f80fd5b8501601f81018713611027575f80fd5b803561103a61103582610fa0565b610f6f565b81815288602083850101111561104e575f80fd5b816020840160208301375f6020838301015280935050505092959194509250565b5f8060408385031215611080575f80fd5b823561108b81610e56565b91506020830135610f2681610e56565b600181811c908216806110af57607f821691505b6020821081036110cd57634e487b7160e01b5f52602260045260245ffd5b50919050565b5f82601f8301126110e2575f80fd5b81516110f061103582610fa0565b818152846020838601011115611104575f80fd5b610d40826020830160208701610de0565b805161073981610e56565b805161073981610eed565b5f6020828403121561113b575f80fd5b815167ffffffffffffffff80821115611152575f80fd5b908301906101008286031215611166575f80fd5b61116e610f45565b82518281111561117c575f80fd5b611188878286016110d3565b82525061119760208401611115565b602082015260408301516040820152606083015160608201526080830151608082015260a083015160a082015260c0830151828111156111d5575f80fd5b6111e1878286016110d3565b60c0830152506111f360e08401611120565b60e082015295945050505050565b5f6001820161121e57634e487b7160e01b5f52601160045260245ffd5b5060010190565b6001600160a01b03858116825284166020820152604081018390526080606082018190525f9061125790830184610e02565b9695505050505050565b5f60208284031215611271575f80fd5b8151610dd981610da956fea26469706673582212204d20ab1ef6665746d89f4b9bb17d40cf1cc0f8509fcae8baec5d3e259198eedf64736f6c63430008180033",
  "linkReferences": {},
  "deployedLinkReferences": {}
}